:100000000C9473000C949D000C949D000C949D0026
:100010000C949D000C949D000C949D000C949D00EC
:100020000C949D000C949D000C949D000C949D00DC
:100030000C949D000C949D000C949D000C949D00CC
:100040000C949D000C949D000C949D000C949D00BC
:100050000C949D000C949D000C949D000C940A033C
:100060000C949D000C94D4020C94AA020C949D0054
:100070000C949D000C949D000C949D000C949D008C
:100080000C949D000C949D000C949D000C949D007C
:100090000C949D000C949D000C949D000C949D006C
:1000A0000C949D000C949D000C949D000C949D005C
:1000B0000C949D000C949D000C949D000C949D004C
:1000C0000C949D000C949D000C949D000C949D003C
:1000D0000C949D000C949D000C949D000C949D002C
:1000E0000C949D000F0511241FBECFEFD1E2DEBF9F
:1000F000CDBF22E0A6E2B2E001C01D92AA3DB20748
:10010000E1F712E0A0E0B2E0E6E0FBE000E00BBFC8
:1001100002C007900D92A632B107D9F710E0C3E7ED
:10012000D0E004C02197FE010E947805C237D107B4
:10013000C9F70E9454030C9481050C940000AF92FF
:10014000BF92CF92DF92EF92FF920F931F93CF93C4
:10015000DF936C017B018B01040F151FEB015E0126
:10016000AE18BF08C017D10759F06991D601ED91BB
:10017000FC910190F081E02DC6010995892B79F75A
:10018000C501DF91CF911F910F91FF90EF90DF900C
:10019000CF90BF90AF900895FC01538D448D252FD3
:1001A00030E0842F90E0821B930B541710F0CF9611
:1001B000089501970895FC01918D828D981761F043
:1001C000A28DAE0FBF2FB11D5D968C91928D9F5F5A
:1001D0009F73928F90E008958FEF9FEF0895FC0139
:1001E000918D828D981731F0828DE80FF11D858DEC
:1001F00090E008958FEF9FEF08952FB7F8948091C6
:10020000390290913A02A0913B02B0913C022FBF7B
:100210008093450290934602A0934702B093480210
:100220008DE392E00E94EF0097FF26C02FB7F8946D
:100230008091390290913A02A0913B02B0913C0228
:100240002FBF409145025091460260914702709144
:100250004802841B950BA60BB70B409141025091AD
:100260004202609143027091440284179507A607E9
:10027000B707B0F28FEF9FEF0895FC01918D228DAB
:10028000892F90E0805C9F4F821B91098F73992783
:1002900008958DE392E00E943D0121E0892B09F44D
:1002A00020E0822F0895FC01A48DA80FB92FB11D65
:1002B000A35ABF4F2C91848D90E001968F7399279C
:1002C000848FA689B7892C93A089B1898C9183707A
:1002D00080648C93938D848D981306C00288F38973
:1002E000E02D80818F7D80830895EF92FF920F93A0
:1002F0001F93CF93DF93EC0181E0888F9B8D8C8DD2
:1003000098131AC0E889F989808185FF15C09FB7C5
:10031000F894EE89FF896083E889F9898081837088
:10032000806480839FBF81E090E0DF91CF911F9137
:100330000F91FF90EF900895F62E0B8D10E00F5F58
:100340001F4F0F731127E02E8C8D8E110CC00FB62E
:1003500007FCFACFE889F989808185FFF5CFCE01C6
:100360000E945301F1CFEB8DEC0FFD2FF11DE35AED
:10037000FF4FF0829FB7F8940B8FEA89FB89808149
:100380008062CFCFCF93DF93EC01888D8823B9F0C3
:10039000AA89BB89E889F9898C9185FD03C0808190
:1003A00086FD0DC00FB607FCF7CF8C9185FFF2CF0D
:1003B000808185FFEDCFCE010E945301E9CFDF910F
:1003C000CF91089580E090E0892B29F00E944901A7
:1003D00081110E94000080E090E0892B49F080E0CC
:1003E00090E0892B29F00E94000081110E940000FA
:1003F00080E090E0892B49F080E090E0892B29F0A3
:100400000E94000081110E94000080E090E0892B92
:1004100049F080E090E0892B29F00E9400008111D2
:100420000C94000008953FB7F894809127029091B2
:100430002802A0912902B0912A0226B5A89B05C0E6
:100440002F3F19F00196A11DB11D3FBFBA2FA92F53
:10045000982F8827BC01CD01620F711D811D911D50
:1004600042E0660F771F881F991F4A95D1F70895BC
:10047000FC0101900020E9F73197AF01481B590BAF
:10048000BC018DE392E00C949F008F929F92AF92FB
:10049000BF920F931F93CF93DF93CDB7DEB7A19792
:1004A0000FB6F894DEBF0FBECDBF19A2423008F4DC
:1004B0004AE08E010F5D1F4F842E912CB12CA12C90
:1004C000A50194010E945605E62FB901CA01EA3040
:1004D000F4F4E05DD801EE938D01232B242B252B22
:1004E00079F790E080E0109719F0CD010E94380272
:1004F000A1960FB6F894DEBF0FBECDBFDF91CF91AE
:100500001F910F91BF90AF909F908F900895E95CDD
:10051000E1CFCF92DF92EF92FF92CF93DF936B0107
:100520007C016DE28DE392E00E947501EC0166278B
:100530007727CB016C197D098E099F094AE00E943B
:1005400045028C0F9D1FDF91CF91FF90EF90DF90C0
:10055000CF9008951F920F920FB60F9211240BB6F1
:100560000F922F933F934F935F936F937F938F934C
:100570009F93AF93BF93EF93FF938DE392E00E941D
:100580005301FF91EF91BF91AF919F918F917F9117
:100590006F915F914F913F912F910F900BBE0F90F4
:1005A0000FBE0F901F9018951F920F920FB60F92CB
:1005B00011240BB60F922F938F939F93EF93FF937A
:1005C000E0914D02F0914E028081E0915302F09152
:1005D000540282FD1DC09081809156028F5F8F73FF
:1005E00020915702821741F0E0915602F0E0E35C5F
:1005F000FD4F958F80935602FF91EF919F918F91C0
:100600002F910F900BBE0F900FBE0F901F9018955B
:100610008081F2CF1F920F920FB60F9211242F9369
:100620003F938F939F93AF93BF93809139029091A3
:100630003A02A0913B02B0913C023091260223E0A5
:10064000230F2D3758F50196A11DB11D20932602C9
:100650008093390290933A02A0933B02B0933C02FC
:100660008091270290912802A0912902B0912A023C
:100670000196A11DB11D8093270290932802A0939B
:100680002902B0932A02BF91AF919F918F913F9120
:100690002F910F900FBE0F901F90189526E8230FF3
:1006A0000296A11DB11DD2CF789484B5826084BD1D
:1006B00084B5816084BD85B5826085BD85B5816066
:1006C00085BD80916E00816080936E0010928100E4
:1006D000809181008260809381008091810081609F
:1006E0008093810080918000816080938000809160
:1006F000B10084608093B1008091B00081608093EC
:10070000B00080919100826080939100809191006F
:10071000816080939100809190008160809390002F
:100720008091A10082608093A1008091A1008160EE
:100730008093A1008091A00081608093A0008091AF
:100740002101826080932101809121018160809349
:1007500021018091200181608093200180917A00A5
:10076000846080937A0080917A00826080937A001E
:1007700080917A00816080937A0080917A0080680D
:1007800080937A001092C100E0914D02F0914E02E8
:1007900082E08083E0914902F0914A021082E09168
:1007A0004B02F0914C028FEC808310925502E09145
:1007B0005102F091520286E08083E0914F02F09165
:1007C0005002808180618083E0914F02F09150025D
:1007D000808188608083E0914F02F0915002808197
:1007E00080688083E0914F02F091500280818F7D7C
:1007F00080831092380210923702809137029091D4
:10080000380204970CF0B3C08DE392E00E943D01E2
:100810001816190694F7109236021092350280913C
:10082000350290913602029744F7109234021092EA
:100830003302809133029091340202970CF08DC004
:1008400082E192E00E94380283E292E00E94380244
:100850000E94FD00FC0197FD78C08D32910521F0CA
:10086000C0970A9708F06AC0C12CD12C7601C0E06D
:10087000E130F105D9F0ED32F10509F464C0CF01A2
:10088000C0970A9798F4AAE0B0E0A70196010E94E9
:100890003C056F01FF0FEE08FF08C60ED71EE81ECD
:1008A000F91E20E3C21AD108E108F1088DE392E0B5
:1008B0000E94DB000E94FD00FC01C0970A97C0F275
:1008C000E130F105A9F2CC2341F0F094E094D0940A
:1008D000C094C11CD11CE11CF11CE0913502F091C7
:1008E0003602EE0FFF1F8091330290913402E80F21
:1008F000F91FEE0FFF1FE55DFD4FD182C082B601EB
:10090000DD0C880B990B97FF24C00E94890283E2BB
:1009100092E00E943802809137029091380201964D
:100920009093380280933702809133029091340281
:10093000019690933402809333027BCF8DE392E053
:100940000E94DB0085CFC1E0B1CFC12CD12C760154
:10095000C4CF4AE00E944502DACF809135029091DF
:1009600036020196909336028093350258CF20913B
:100970002B0230912C028091310290913202289FFB
:10098000B001299F700D389F700D112440912F02E6
:100990005091300220912D0230912E02429FC001D1
:1009A000439F900D529F900D1124681B790B072EC9
:1009B000000C880B990B97FF2EC00E94890283E2DE
:1009C00092E00E9438020E9413026B017C0180EDCC
:1009D000882E87E0982EA12CB12C0E9413026C194E
:1009E0007D098E099F09683E734081059105A8F332
:1009F00081E0881A9108A108B10828EEC20E23E010
:100A0000D21EE11CF11C81149104A104B10429F748
:100A10000E94E201F2CE4AE00E944502D0CFEDE30F
:100A2000F2E01382128288EE93E0A0E0B0E08483CB
:100A30009583A683B78384E092E09183808385ECDD
:100A400090E09587848784EC90E09787868780EC98
:100A500090E0918B808B81EC90E0938B828B82EC89
:100A600090E0958B848B86EC90E0978B868B118E33
:100A7000128E138E148E08950E944705A59F900D27
:100A8000B49F900DA49F800D911D11240895A29FE5
:100A9000B001B39FC001A39F700D811D1124911D52
:100AA000B29F700D811D1124911D0895A1E21A2E8F
:100AB000AA1BBB1BFD010DC0AA1FBB1FEE1FFF1F02
:100AC000A217B307E407F50720F0A21BB30BE40B52
:100AD000F50B661F771F881F991F1A9469F7609599
:100AE0007095809590959B01AC01BD01CF01089553
:100AF000EE0FFF1F0024001C0BBE0790F691E02DA7
:060B00000994F894FFCFF8
:100B06000000000075019F00CC00C2013D01DB0022
:100B1600EF0045736372696269722076616C6F7269
:060B26003A20000D0A0058
:00000001FF
