:1000000084C10000B2C10000B0C10000AEC1000058
:10001000ACC10000AAC10000A8C10000A6C1000038
:10002000A4C10000A2C10000A0C100009EC1000048
:100030009CC100009AC1000098C1000096C1000058
:1000400094C10000FCC6000090C100008EC10000F9
:100050008CC100008AC1000088C10000C0C500003A
:1000600084C100002FC6000004C600007EC100004D
:100070007CC100007AC1000078C1000076C1000098
:10008000B1C6000072C1000070C100006EC1000066
:100090006CC100006AC1000068C1000066C10000B8
:1000A00064C1000062C1000070C600005EC10000B3
:1000B0005CC100005AC1000058C1000039C60000F0
:1000C00054C1000052C1000050C100004EC10000E8
:1000D0004CC100004AC1000048C1000046C10000F8
:1000E00044C1000088028B027A027E028202C202B0
:1000F0008F02930299029D02A102A702AB02AF02F6
:10010000C202B502B902BD0200407A10F35A00A043
:10011000724E18090010A5D4E80000E876481700D0
:1001200000E40B54020000CA9A3B000000E1F50510
:10013000000080969800000040420F000000A0865A
:1001400001000000102700000000E803000000008C
:100150006400000000000A00000000000100000030
:1001600000002C76D888DC674F0823DFC1DFAE594A
:10017000E1B1B796E5E3E453C63AE651997696E8DD
:10018000E6C28426EB898C9B62ED407C6FFCEFBC61
:100190009C9F40F2BAA56FA5F490055A2AF75C938C
:1001A0006B6CF9676DC11BFCE0E40D47FEF520E6C2
:1001B000B500D0ED902E0300943577050080841EA5
:1001C000080000204E0A000000C80C333333330F00
:1001D000986E12831141EF8D2114893BE65516CF9D
:1001E000FEE6DB18D1844B381BF77C1D901DA4BBA9
:1001F000E424203284725E228100C9F124ECA1E55E
:100200003D2700000A0B02090C0D0E08070304012C
:1002100000000000000000000000000000000000DE
:1002200000000000000000000000000000001211AB
:1002300010000000000000000000000000000000AE
:10024000000000000000000000002200250028003F
:100250002B002E00310034000201000005010801CE
:100260000B0100002100240027002A002D0030008F
:10027000330001010000040107010A01050505051D
:10028000070508080808020202020A0A080804040E
:10029000040401010101010101010303030303033C
:1002A0000303040707070C0C0C0C0C0C0C0C0202CB
:1002B000020206060606060606060B0B0B0B0B0BC8
:1002C0000B0B010210202008081020401020408055
:1002D000020102010804020101020408102040800A
:1002E0008040201008040201800402018040201098
:1002F00008040201080402010102040810204080E1
:100300000102040810204080680711241FBECFEFAF
:10031000D1E2DEBFCDBF00E00CBF12E0A0E0B2E052
:10032000EEE6F0E200E00BBF02C007900D92A233B0
:10033000B107D9F723E0A2E3B2E001C01D92A138D2
:10034000B207E1F711E0C5E8D1E000E006C021976F
:100350000109802FFE010E94180EC438D10780E0E9
:100360000807A9F7EDD50C9435104ACE90E0FC01B2
:10037000EE53FD4F2491FC01E458FD4F84918823F6
:1003800099F090E0880F991FFC01EE59FD4FA5915F
:10039000B491FC01E85BFD4F859194918FB7F8947F
:1003A000EC91E22BEC938FBF0895CF92DF92EF9206
:1003B000FF92DC01A03282E0B8070CF03EC0B7FD2E
:1003C00006C0A53BB1052CF0A4EBB0E002C0A0E054
:1003D000B0E080917B0328E830E06901C81AD108B9
:1003E00087FDD394CC0CDD1CCC0CDD1C0D2C000C3B
:1003F000EE08FF0880917C0328E532E0281B3109D4
:1004000087FD3395220F331F220F331FA901330FAE
:10041000660B770B9A01AB012C193D094E095F0958
:100420000E94690D24EB30E040E050E00E94430D53
:10043000C20ED31EE41EF51ED60190917A039033AE
:1004400098F580917B0348E850E0481B510987FDEF
:100450005395440F551F440F551FA417B5078CF033
:1004600080917C0328E532E0281B310987FD339514
:10047000220F331F220F331FAD012A173B070CF445
:10048000A90142505109440F551F2FB7F894892FE5
:1004900090E0FC01EE0FFF1F8E0F9F1FFC01EC5B35
:1004A000FD4F528341832FBFFF90EF90DF90CF909D
:1004B0000895362F90E0FC01EE5FFD4F4491FC0162
:1004C000EE53FD4F2491FC01E458FD4F9491992384
:1004D00009F46CC0442309F455C050E0FA01319787
:1004E000E231F10508F04EC08827EE58FF4F8F4FDC
:1004F0000C94180E809180008F7707C08091800047
:100500008F7D03C080918000877F809380003AC0F8
:1005100084B58F7702C084B58F7D84BD33C0809150
:10052000B0008F7703C08091B0008F7D8093B000C2
:1005300029C0809190008F7707C0809190008F7DB7
:1005400003C080919000877F809390001BC08091B2
:10055000A0008F7707C08091A0008F7D03C080919D
:10056000A000877F8093A0000DC0809120018F772D
:1005700007C0809120018F7D03C080912001877F7B
:1005800080932001E92FF0E0EE0FFF1FE85BFD4FA5
:10059000A591B4919FB7F894311104C08C91209526
:1005A000282302C0EC912E2B2C939FBF08958633F5
:1005B00008F0865390917B00282F2870977F922B0C
:1005C00090937B008770806480937C0080917A0098
:1005D000806480937A0080917A0086FDFCCF8091C0
:1005E00078002091790090E0922B08953FB7F8941D
:1005F0008091400290914102A0914202B091430249
:1006000026B5A89B05C02F3F19F00196A11DB11D6D
:100610003FBFBA2FA92F982F8827820F911DA11DA8
:10062000B11DBC01CD0142E0660F771F881F991FE5
:100630004A95D1F70895CF92DF92EF92FF920F93F0
:100640001F93CF93DF936C017A018B01C0E0D0E060
:10065000CE15DF0581F0D8016D918D01D601ED91A8
:10066000FC910190F081E02DC6011995892B11F0C4
:100670002196EECF7E01C701DF91CF911F910F919F
:10068000FF90EF90DF90CF900895089580E090E084
:100690000895FC01538D448D252F30E0842F90E088
:1006A000821B930B541710F0CF960895019708956D
:1006B000FC01918D828D981761F0828DDF01A80F6A
:1006C000B11D5D968C91928D9F5F9F73928F90E08C
:1006D00008958FEF9FEF0895FC01918D828D9817FB
:1006E00031F0828DE80FF11D858D90E008958FEF38
:1006F0009FEF0895FC01918D228D892F90E0805C01
:100700009F4F821B91098F739927089584ED92E082
:10071000F1DF21E0892B09F420E0822F0895FC010C
:10072000848DDF01A80FB11DA35ABF4F2C91848D7A
:1007300090E001968F739927848FA689B7892C93AF
:10074000A089B1898C91837080648C93938D848D02
:10075000981306C00288F389E02D80818F7D808305
:100760000895EF92FF920F931F93CF93DF93EC01C5
:1007700081E0888F9B8D8C8D981305C0E889F9895D
:10078000808185FD25C0F62E0B8D10E00F5F1F4F79
:100790000F731127E02E8C8DE8120BC00FB607FCEB
:1007A000FACFE889F989808185FFF5CFCE01B7DFDF
:1007B000F2CF8B8DFE01E80FF11DE35AFF4FF0825F
:1007C0009FB7F8940B8FEA89FB89808180620AC009
:1007D0009FB7F894EE89FF896083E889F989808161
:1007E0008370806480839FBF81E090E0DF91CF9130
:1007F0001F910F91FF90EF900895CF93DF93EC013D
:10080000888D8823C1F0EA89FB89808185FD05C038
:10081000A889B9898C9186FD0EC00FB607FCF5CF6B
:10082000808185FFF2CFA889B9898C9185FFEDCFB2
:10083000CE0175DFE8CFDF91CF91089580E090E0A1
:10084000892B19F063DF811125C080E090E0892BAE
:1008500041F080E090E0892B21F00E94000081119E
:100860001CC080E090E0892B41F080E090E0892B73
:1008700021F00E940000811113C080E090E0892BDC
:10088000A1F080E090E0892B81F00E9400008111AE
:100890000AC008950E940000D8CF0E940000E1CF56
:1008A0000E940000EACF0C94000008958130910569
:1008B00081F41092800082E0809381001092850084
:1008C00010928400B19A80916F00826080936F00D3
:1008D00008958230910569F41092900082E080932F
:1008E0009100109295001092940088BB8093710043
:1008F00008958330910569F41092A00082E08093FE
:10090000A1001092A5001092A40089BB80937200F0
:100910000895892B61F41092200182E080932101D7
:1009200010922501109224018ABB809373000895D0
:10093000CF92DF92EF92FF920F931F93CF93DF93AB
:100940006C018B017A01EC01CE5CDD4F888187FF61
:1009500004C0FB011182108224C02CE02C9DC00138
:100960002D9D900D11242881AC01420F511D27FDB2
:100970005A952091360230E04217530794F42881AB
:10098000AC01420F511D27FD5A959A01FA01EE0F55
:10099000FF1F2E0F3F1FF901EC5BFD4F208126FD4D
:1009A00019C088818F5F88832CE02C9DC0012D9D0C
:1009B000900D11242881AC01420F511D27FD5A953D
:1009C0002091360230E042175307B4F428812C30CE
:1009D0003CF112C02881820F911D27FD9A95FC01E0
:1009E000EE0FFF1F8E0F9F1FFC01EC5BFD4F808100
:1009F00060E08F735EDDD5CFF80180819181049630
:100A000080349C4918F480E49CE904C0F80180819A
:100A100091810496F701918380838FEF888344C08E
:100A2000F801408151812881BC01620F711D27FDB1
:100A30007A959B01FB01EE0FFF1F2E0F3F1FF9015F
:100A4000EC5BFD4F21813281240F351FF70131838B
:100A500020832881AC01420F511D27FD5A959A0130
:100A6000FA01EE0FFF1F2E0F3F1FF901EC5BFD4F48
:100A7000208126FF19C02881820F911D27FD9A959C
:100A8000FC01EE0FFF1F8E0F9F1FFC01EC5BFD4F63
:100A9000808161E08F73DF91CF911F910F91FF9063
:100AA000EF90DF90CF9005CDDF91CF911F910F9107
:100AB000FF90EF90DF90CF900895CF93DF93EC01FC
:100AC00088819981009711F00E94B80E19821882CE
:100AD0001D821C821B821A82DF91CF9108950E9491
:100AE00021100F931F93CF93DF93EC01888199819D
:100AF000009729F02A813B812617370788F48B015C
:100B00006F5F7F4F0E94410F009761F09983888348
:100B10001B830A832C813D81232B11F4FC0110825D
:100B200081E001C080E0DF91CF911F910F91089586
:100B3000EF92FF920F931F93CF93DF938C017B0172
:100B40006115710561F0FB0101900020E9F7319713
:100B5000EF01C61BD70BBE01C4DF811103C0C80162
:100B6000ACDF08C0F801D583C483B70180819181CF
:100B70000E942E10C801DF91CF911F910F91FF901D
:100B8000EF900895EF92FF920F931F93CF93DF930F
:100B90006115710511F480E01BC041155105B9F0D4
:100BA0007B01EC018C819D818A01080F191FB8011E
:100BB000CE0197DF882379F3288139818C819D814B
:100BC000B701820F931F0E942E101D830C8381E0BA
:100BD000DF91CF911F910F91FF90EF9008951F9299
:100BE0000F920FB60F9211242F933F938F939F93E1
:100BF000AF93BF9380913C0290913D02A0913E0241
:100C0000B0913F0230913B0223E0230F2D3720F4B7
:100C10000196A11DB11D05C026E8230F0296A11D56
:100C2000B11D20933B0280933C0290933D02A09320
:100C30003E02B0933F028091400290914102A09108
:100C40004202B09143020196A11DB11D8093400262
:100C500090934102A0934202B0934302BF91AF919F
:100C60009F918F913F912F910F900FBE0F901F90EA
:100C700018951F920F920FB60F9211240BB60F9278
:100C80002F933F934F935F936F937F938F939F9394
:100C9000AF93BF93EF93FF9384ED92E040DDFF911C
:100CA000EF91BF91AF919F918F917F916F915F91E4
:100CB0004F913F912F910F900BBE0F900FBE0F9051
:100CC0001F9018951F920F920FB60F9211240BB61A
:100CD0000F922F938F939F93EF93FF93E091E402F2
:100CE000F091E5028081E091EA02F091EB0282FD51
:100CF00012C090818091ED028F5F8F732091EE0280
:100D0000821751F0E091ED02F0E0EC52FD4F958F2B
:100D10008093ED0201C08081FF91EF919F918F91AF
:100D20002F910F900BBE0F900FBE0F901F90189534
:100D30001F920F920FB60F9211240BB60F922F93A2
:100D40003F934F935F936F937F938F939F93AF9353
:100D5000BF93EF93FF9348E251E064E271E080E0DB
:100D600090E0E6DDFF91EF91BF91AF919F918F9160
:100D70007F916F915F914F913F912F910F900BBE9B
:100D80000F900FBE0F901F9018951F920F920FB6E5
:100D90000F9211240BB60F922F933F934F935F93B3
:100DA0006F937F938F939F93AF93BF93EF93FF9333
:100DB00048EA50E064EA70E083E090E0B9DDFF913A
:100DC000EF91BF91AF919F918F917F916F915F91C3
:100DD0004F913F912F910F900BBE0F900FBE0F9030
:100DE0001F9018951F920F920FB60F9211240BB6F9
:100DF0000F922F933F934F935F936F937F938F93B4
:100E00009F93AF93BF93EF93FF9348E950E064E95A
:100E100070E082E090E08CDDFF91EF91BF91AF91A7
:100E20009F918F917F916F915F914F913F912F9102
:100E30000F900BBE0F900FBE0F901F9018951F9232
:100E40000F920FB60F9211240BB60F922F933F9370
:100E50004F935F936F937F938F939F93AF93BF93C2
:100E6000EF93FF9348E850E064E870E081E090E0A1
:100E70005FDDFF91EF91BF91AF919F918F917F9136
:100E80006F915F914F913F912F910F900BBE0F90FB
:100E90000FBE0F901F901895FC0190913602903371
:100EA000A0F481E0890F809336029083892F90E02F
:100EB000FC01EE0FFF1F8E0F9F1FFC01EC5BFD4F2F
:100EC00088EB9BE09283818308958FEF8083089560
:100ED000E4EDF2E01382128288EE93E0A0E0B0E04D
:100EE00084839583A683B7838AE092E0918380838D
:100EF00085EC90E09587848784EC90E097878687DF
:100F000080EC90E0918B808B81EC90E0938B828BD6
:100F100082EC90E0958B848B86EC90E0978B868BAF
:100F2000118E128E138E148E8AE793E0B5DF87E759
:100F300093E0B2DF84E793E0AFDF81E793E0ACCFEB
:100F4000CF93DF93CDB7DEB7AD970FB6F894DEBF82
:100F50000FBECDBF789484B5826084BD84B58160B6
:100F600084BD85B5826085BD85B5816085BD809174
:100F70006E00816080936E001092810080918100EC
:100F800082608093810080918100816080938100E4
:100F9000809180008160809380008091B1008460A6
:100FA0008093B1008091B00081608093B000809107
:100FB0009100826080939100809191008160809384
:100FC0009100809190008160809390008091A100B9
:100FD00082608093A1008091A10081608093A10034
:100FE0008091A00081608093A000809121018260A7
:100FF0008093210180912101816080932101809162
:10100000200181608093200180917A008460809328
:101010007A0080917A00826080937A0080917A00D1
:10102000816080937A0080917A00806880937A0052
:101030001092C10080917A03803308F03FC08DE0A8
:1010400095D980917A03E82FF0E09F01220F331F9A
:10105000E20FF31FEC5BFD4F9081907C9D609083CD
:1010600010927B0310927C036CE0D6D590E02CE0CC
:10107000829FB001112440E050E09B01240F351FF6
:10108000F901EE0FFF1F2E0F3F1FF901EC5BFD4F23
:10109000208126FD06C04F5F5F4F4C30510569F738
:1010A00005DCE0917A03F0E0CF01880F991FE80F8B
:1010B000F91FEC5BFD4F8081806480838091770312
:1010C000803308F03FC08BE051D980917703E82F3F
:1010D000F0E09F01220F331FE20FF31FEC5BFD4F87
:1010E0009081907C9B60908310927803109279039A
:1010F0006CE092D590E02CE0829FB001112440E09A
:1011000050E09B01240F351FF901EE0FFF1F2E0F3A
:101110003F1FF901EC5BFD4F208126FD06C04F5FAC
:101120005F4F4C30510569F7C1DBE0917703F0E088
:10113000CF01880F991FE80FF91FEC5BFD4F8081ED
:1011400080648083E091E402F091E50282E0808394
:10115000E091E002F091E1021082E091E202F09170
:10116000E3028FEC80831092EC02E091E802F091B0
:10117000E90286E08083E091E602F091E702808157
:1011800080618083E091E602F091E70280818860CF
:101190008083E091E602F091E7028081806880839D
:1011A000E091E602F091E70280818F7D808386E303
:1011B000FED9BC01990F880B990B52D320E030E087
:1011C00040EA50E4ACD320E030E048EC52E4A7D34E
:1011D00020E030EC4FE754E4B3D4609337027093CF
:1011E00038028093390290933A0287E3E0D91BA238
:1011F0001AA21DA21CA21FA21EA2BC01990F880B3D
:10120000990B2ED320E030E040EA50E488D320E070
:1012100030E048EC52E483D320E030EC4FE754E474
:101220008FD48E010F5F1F4F22E044E0AAD0BC0193
:10123000CE0182967DDC60913702709138028091F8
:10124000390290913A0219A618A61BA61AA61DA645
:101250001CA622E044E095D0BC01CE01889668DC53
:101260001A8219821C821B821E821D8269E070E034
:10127000C80137DC811103C0C8011FDC09C089E047
:1012800090E09E838D8368E172E089819A81E6D641
:101290004CA55DA568A579A5CE01019673DC8111E9
:1012A00003C0CE01019609DC4BE050E062E272E03F
:1012B000CE01019667DC882309F45FC04EA15FA1CF
:1012C0006AA17BA1CE0101965DDC811103C0CE0134
:1012D0000196F3DB4D815E8169817A8184ED92E034
:1012E000AAD942E050E06EE272E084ED92E0A3D928
:1012F00089819A813DD588A599A53AD58AA19BA1D6
:1013000037D520E030E040EC51E460913702709135
:1013100038028091390290913A027AD418161CF45E
:1013200084EB90E002C080E090E03FD85FD94B01B1
:101330005C0184EFC82EDD24D394E12CF12C56D926
:10134000DC01CB0188199909AA09BB09883E9340A1
:10135000A105B105A0F381E0C81AD108E108F108A0
:1013600028EE820E23E0921EA11CB11CC114D104F0
:10137000E104F10421F762DA1ACFCE0101969DDB78
:101380009DCFEF920F931F93CF93DF93E80147FD1B
:1013900002C034E001C034E1042E000C550B57FFAD
:1013A00003C0519541955109E32E022F242FAE0120
:1013B00007D0CE01DF91CF911F910F91EF9008954B
:1013C0008F929F92AF92BF92CF92DF92EF92FF9255
:1013D0000F931F93CF93DF93CDB7DEB729970FB647
:1013E000F894DEBF0FBECDBF6A01122FB02E2BE3E3
:1013F000201720F0FF24F394F00E02C02CE3F22E0D
:101400000F2D27E0AE014F5F5F4F50D1BC014981E6
:10141000842F8970813031F0E1FC06C0E0FE06C007
:1014200090E205C09DE203C09BE201C090E05E2D0A
:10143000507143FF3CC0911102C083E001C084E0C1
:10144000811718F4212F281B01C020E051110BC077
:10145000F601822F30E2882319F031938150FBCFBF
:10146000C20ED11C20E0992329F0D6019C93F601ED
:1014700031966F01C6010396E2FE0AC03EE4D60132
:101480003C9341E411964C93119712963C9306C0FD
:101490003EE6F601308341E641833283FC01322F80
:1014A00040E2332309F442C041933150FACF42FF66
:1014B00044C0911102C083E001C084E0811718F498
:1014C000212F281B01C020E051110BC0F601822FF3
:1014D00030E2882319F031938150FBCFC20ED11C2A
:1014E00020E0992329F0D6019C93F60131966F01F3
:1014F000C6010396E2FE0BC039E4D6013C933EE4FC
:1015000011963C93119736E412963C9307C039E646
:10151000F60130833EE6318336E63283FC01322F1A
:1015200040E2332319F041933150FBCFFC01E20F2D
:10153000F11D10828EEF9FEFA6C021E030E09111E7
:1015400002C020E030E0161617061CF4FB013196AD
:1015500002C0E1E0F0E02E0F3F1FBB2021F0EB2D99
:10156000F0E0319602C0E0E0F0E02E0F3F1FE12FE7
:10157000F0E02E173F071CF4121B212F01C020E0C2
:101580008E2D887159F4F601822F30E2882319F0EC
:1015900031938150FBCFC20ED11C20E0992329F05A
:1015A000D6019C93F60131966F0151110BC0F601E3
:1015B000822F90E3882319F091938150FBCFC20EC4
:1015C000D11C20E00F2D060F9A81342F307144FF7B
:1015D00003C0913309F40150101624F4093018F0B7
:1015E00008E001C001E0AB0177FF02C040E050E03D
:1015F000FB01E41BF50BA1E0B0E0AC0FBD1FEA0F4F
:10160000FB1F8EE2A82E4B01801A91080B2D10E0D3
:101610001195019511094F3FBFEF5B0721F4D601EA
:10162000AC9211966D01641775072CF0841695061F
:1016300014F4818101C080E3415051093196D601F3
:1016400011967D014017510724F0D6018C93670154
:10165000E2CF6417750739F4963320F4953319F403
:10166000311101C081E3F6018083F701822F90E2FE
:10167000882319F091938150FBCFF701E20FF11D00
:10168000108280E090E029960FB6F894DEBF0FBE7E
:10169000CDBFDF91CF911F910F91FF90EF90DF9021
:1016A000CF90BF90AF909F908F900895283008F012
:1016B00027E03327DA01990F311D87FD91600096ED
:1016C0006105710539F432602E5F3D9330E32A9550
:1016D000E1F708959F3F30F080387105610509F00A
:1016E0003C5F3C5F3D93913008F08068911DDF9333
:1016F000CF931F930F93FF92EF92192F987F969598
:10170000E92F96959695E90FFF27EE59FE4F9927F9
:101710003327EE24FF24A701E701059008940794DE
:1017200028F4360FE71EF81E491F511D660F771F5C
:10173000881F991F0694A1F70590079428F4E70ED7
:10174000F81E491F561FC11D770F881F991F661F5E
:101750000694A1F70590079428F4F80E491F561F28
:10176000C71FD11D880F991F661F771F0694A1F709
:101770000590079420F4490F561FC71FD81F990FD3
:10178000661F771F881F0694A9F78491109517701C
:1017900041F0D695C79557954795F794E7941A95D4
:1017A000C1F7E8E0F1E068941590159135916591E5
:1017B000959105907FE27395E118F10A430B560B62
:1017C000C90BD009C0F7E10CF11E431F561FC91FFA
:1017D000D01D7EF4703311F48A95E6CFE894015061
:1017E00030F0080F0AF40027021708F4202F239581
:1017F000022F7A3328F079E37D932A95E9F710C018
:101800007D932A9589F60694979567953795179550
:101810001794E118F10A430B560BC90BD00998F045
:1018200023957E9173957A3308F070E37C932013AF
:10183000B8F77E9170617D9330F0839571E37D936D
:1018400070E32A95E1F71124EF90FF900F911F911B
:10185000CF91DF91992787FD90950895E89409C06D
:1018600097FB3EF490958095709561957F4F8F4FD3
:101870009F4F9923A9F0F92F96E9BB279395F695E9
:10188000879577956795B795F111F8CFFAF4BB0F67
:1018900011F460FF1BC06F5F7F4F8F4F9F4F16C0CB
:1018A000882311F096E911C0772321F09EE8872F55
:1018B000762F05C0662371F096E8862F70E060E011
:1018C0002AF09A95660F771F881FDAF7880F96958A
:1018D000879597F90895990F0008550FAA0BE0E82E
:1018E000FEEF16161706E807F907C0F012161306E2
:1018F000E407F50798F0621B730B840B950B39F422
:101900000A2661F0232B242B252B21F408950A2687
:1019100009F4A140A6958FEF811D811D08950BD07C
:1019200078C069D028F06ED018F0952309F05AC01D
:101930005FC01124A2C07ED0A0F3959FD1F3950F74
:1019400050E0551F629FF001729FBB27F00DB11D43
:10195000639FAA27F00DB11DAA1F649F6627B00DD3
:10196000A11D661F829F2227B00DA11D621F739FBC
:10197000B00DA11D621F839FA00D611D221F749FCA
:101980003327A00D611D231F849F600D211D822F11
:10199000762F6A2F11249F5750408AF0E1F0882358
:1019A0004AF0EE0FFF1FBB1F661F771F881F915065
:1019B0005040A9F79E3F510570F014C05EC05F3FD4
:1019C000ECF3983EDCF3869577956795B795F79598
:1019D000E7959F5FC1F7FE2B880F911D9695879520
:1019E00097F9089597F99F6780E870E060E008959F
:1019F0009FEF80EC089500240A9416161706180627
:101A00000906089500240A94121613061406050602
:101A10000895092E0394000C11F4882352F0BB0F93
:101A200040F4BF2B11F460FF04C06F5F7F4F8F4FF6
:101A30009F4F089557FD9058440F551F59F05F3F31
:101A400071F04795880F97FB991F61F09F3F79F0E0
:101A500087950895121613061406551FF2CF469562
:101A6000F1DF08C0161617061806991FF1CF8695E4
:101A70007105610508940895E894BB2766277727C8
:101A8000CB0197F90895052E97FB16F400940FD01B
:101A900057FD05D024D007FC02D046F408C050956D
:101AA0004095309521953F4F4F4F5F4F089590954A
:101AB0008095709561957F4F8F4F9F4F089531D0DE
:101AC000A59F900DB49F900DA49F800D911D112492
:101AD0000895B7FFF4CFF3DF821B930B0895A1E2C3
:101AE0001A2EAA1BBB1BFD010DC0AA1FBB1FEE1F98
:101AF000FF1FA217B307E407F50720F0A21BB30BE3
:101B0000E40BF50B661F771F881F991F1A9469F75E
:101B100060957095809590959B01AC01BD01CF01BA
:101B20000895A29FB001B39FC001A39F700D811DB6
:101B30001124911DB29F700D811D1124911D0895D6
:101B40000CD067CF5FDF40F056DF30F021F45F3F0D
:101B500019F048CF511191CF4BCF6CDF98F39923F7
:101B6000C9F35523B1F3951B550BBB27AA27621761
:101B70007307840738F09F5F5F4F220F331F441FA6
:101B8000AA1FA9F333D00E2E3AF0E0E830D09150DE
:101B90005040E695001CCAF729D0FE2F27D0660FCB
:101BA000771F881FBB1F261737074807AB07B0E80A
:101BB00009F0BB0B802DBF01FF2793585F4F2AF020
:101BC0009E3F510568F00ECF58CF5F3FECF3983E33
:101BD000DCF3869577956795B795F7959F5FC9F77D
:101BE000880F911D9695879597F90895E1E0660F06
:101BF000771F881FBB1F621773078407BA0720F07F
:101C0000621B730B840BBA0BEE1F88F7E0950895E7
:101C100062DE08F48FEF0895991B79E004C0991FE4
:101C2000961708F0961B881F7A95C9F78095089536
:101C3000EE0FFF1F881F8BBF0790F691E02D1994C0
:101C40000F931F93CF93DF938230910510F482E0BE
:101C500090E0E0917F03F091800320E030E0A0E08D
:101C6000B0E0309719F1408151810281138148170A
:101C70005907C8F08417950769F4109731F0129648
:101C80000C93129713961C9327C000937F03109315
:101C9000800322C02115310519F04217530718F4AB
:101CA0009A01BD01EF01DF01F801DBCF21153105FC
:101CB000F9F0281B390B2430310580F48A819B818F
:101CC0006115710521F0FB019383828304C0909319
:101CD000800380937F03FE01329644C0FE01E20F31
:101CE000F31F8193919322503109398328833AC09D
:101CF00020917D0330917E03232B41F42091020239
:101D00003091030230937E0320937D0320910002E3
:101D1000309101022115310541F42DB73EB74091B4
:101D2000040250910502241B350BE0917D03F091D4
:101D30007E03E217F307A0F42E1B3F0B2817390789
:101D400078F0AC014E5F5F4F2417350748F04E0F17
:101D50005F1F50937E0340937D038193919302C054
:101D6000E0E0F0E0CF01DF91CF911F910F91089556
:101D7000CF93DF93009709F481C0FC01329713825F
:101D80001282A0917F03B0918003109781F420818B
:101D90003181820F931F20917D0330917E0328179C
:101DA000390751F5F0937E03E0937D0367C0ED01A1
:101DB00020E030E0CE17DF0740F44A815B819E01CE
:101DC00041155105F1F0EA01F5CFD383C28340817B
:101DD0005181840F951FC817D90759F488819981BB
:101DE000840F951F0296918380838A819B819383C0
:101DF00082832115310529F4F0938003E0937F035A
:101E00003DC0E901FB83EA8349915991C40FD51F75
:101E1000EC17FD0761F480819181840F951F029674
:101E2000E90199838883828193819B838A83E0E09F
:101E3000F0E012968D919C911397009719F0FD0197
:101E4000DC01F7CF8D919C9111979D012E5F3F4F43
:101E5000820F931F20917D0330917E03281739074D
:101E600069F4309729F41092800310927F0302C026
:101E700013821282B0937E03A0937D03DF91CF91F2
:101E800008956F927F928F929F92AF92BF92CF925E
:101E9000DF92EF92FF920F931F93CF93DF93009700
:101EA00081F4CB01DF91CF911F910F91FF90EF90C3
:101EB000DF90CF90BF90AF909F908F907F906F906A
:101EC000BFCEFC01E60FF71F9C0122503109E2173B
:101ED000F30708F4A5C0EC01D9010D911C911197ED
:101EE00006171707A8F00530110508F497C0C801B8
:101EF00004978617970708F491C002501109061B32
:101F0000170B019311936D937C93CF0131DF86C042
:101F10005B01A01AB10A4C01800E911EA0917F03B3
:101F2000B0918003612C712CE12CF12C109709F4F5
:101F300046C08D919C911197A815B905B1F56C011A
:101F400042E0C40ED11CCA14DB0478F14C018A189B
:101F50009B08640142E0C40ED11C1296BC901297FB
:101F60001396AC91B5E0CB16D10440F0B282A383B6
:101F700091828082D9016D937C9309C00E5F1F4FBF
:101F8000800F911FF90191838083EB2DFA2FE114CB
:101F9000F10431F0D7011396FC93EE9312973EC0F3
:101FA000F0938003E0937F0339C06816790608F444
:101FB0003C017D0112960D90BC91A02DB7CF809170
:101FC0007D0390917E0388169906E1F466167706E4
:101FD000C8F48091000290910102009741F48DB7FE
:101FE0009EB74091040250910502841B950BE8179F
:101FF000F907B0F4F0937E03E0937D03F901718358
:1020000060830CC0CB011CDE7C01009749F0A80165
:10201000BE011BD0CE01ACDEC70104C0CE0102C0A0
:1020200080E090E0DF91CF911F910F91FF90EF90B2
:10203000DF90CF90BF90AF909F908F907F906F90E8
:10204000089581E090E0F89410C0FB01DC0102C02B
:1020500001900D9241505040D8F70895FB01DC01EA
:0E20600001900D920020E1F70895F894FFCF53
:10206E0000008103800000000000B1031B03490340
:10207E00FD037A0358036C0354656D702043313AA7
:10208E0020000A2054656D702043323A20000D0A5C
:02209E00000040
:00000001FF
