:100000000C9473000C949D000C949D000C949D0026
:100010000C949D000C949D000C949D000C949D00EC
:100020000C949D000C949D000C949D000C949D00DC
:100030000C949D000C949D000C949D000C949D00CC
:100040000C949D000C949D000C949D000C949D00BC
:100050000C949D000C949D000C949D000C94320314
:100060000C949D000C94FC020C94D2020C949D0004
:100070000C949D000C949D000C949D000C949D008C
:100080000C949D000C949D000C949D000C949D007C
:100090000C949D000C949D000C949D000C949D006C
:1000A0000C949D000C949D000C949D000C949D005C
:1000B0000C949D000C949D000C949D000C949D004C
:1000C0000C949D000C949D000C949D000C949D003C
:1000D0000C949D000C949D000C949D000C949D002C
:1000E0000C949D00160511241FBECFEFD1E2DEBF98
:1000F000CDBF22E0A2E4B2E001C01D92A43FB2074E
:10010000E1F712E0A0E0B2E0E4E8FFE000E00BBFBE
:1001100002C007900D92A234B107D9F710E0C3E7EF
:10012000D0E004C02197FE010E94A105C237D1078B
:10013000C9F70E947C030C94C0070C940000AF9296
:10014000BF92CF92DF92EF92FF920F931F93CF93C4
:10015000DF936C017B018B01040F151FEB015E0126
:10016000AE18BF08C017D10759F06991D601ED91BB
:10017000FC910190F081E02DC6010995892B79F75A
:10018000C501DF91CF911F910F91FF90EF90DF900C
:10019000CF90BF90AF900895FC01538D448D252FD3
:1001A00030E0842F90E0821B930B541710F0CF9611
:1001B000089501970895FC01918D828D981761F043
:1001C000A28DAE0FBF2FB11D5D968C91928D9F5F5A
:1001D0009F73928F90E008958FEF9FEF08952FB750
:1001E000F89480914F0290915002A0915102B091E9
:1001F00052022FBF80935B0290935C02A0935D023A
:10020000B0935E0283E592E00E94DB0097FF26C078
:100210002FB7F89480914F0290915002A091510213
:10022000B09152022FBF40915B0250915C026091ED
:100230005D0270915E02841B950BA60BB70B40917B
:100240005702509158026091590270915A028417D6
:100250009507A607B707B0F28FEF9FEF0895FC014F
:10026000918D828D981731F0828DE80FF11D858D6B
:1002700090E008958FEF9FEF0895FC01918D228DFE
:10028000892F90E0805C9F4F821B91098F73992783
:10029000089583E592E00E943D0121E0892B09F455
:1002A00020E0822F0895FC01A48DA80FB92FB11D65
:1002B000A35ABF4F2C91848D90E001968F7399279C
:1002C000848FA689B7892C93A089B1898C9183707A
:1002D00080648C93938D848D981306C00288F38973
:1002E000E02D80818F7D80830895EF92FF920F93A0
:1002F0001F93CF93DF93EC0181E0888F9B8D8C8DD2
:1003000098131AC0E889F989808185FF15C09FB7C5
:10031000F894EE89FF896083E889F9898081837088
:10032000806480839FBF81E090E0DF91CF911F9137
:100330000F91FF90EF900895F62E0B8D10E00F5F58
:100340001F4F0F731127E02E8C8D8E110CC00FB62E
:1003500007FCFACFE889F989808185FFF5CFCE01C6
:100360000E945301F1CFEB8DEC0FFD2FF11DE35AED
:10037000FF4FF0829FB7F8940B8FEA89FB89808149
:100380008062CFCFCF93DF93EC01888D8823B9F0C3
:10039000AA89BB89E889F9898C9185FD03C0808190
:1003A00086FD0DC00FB607FCF7CF8C9185FFF2CF0D
:1003B000808185FFEDCFCE010E945301E9CFDF910F
:1003C000CF91089580E090E0892B29F00E944901A7
:1003D00081110E94000080E090E0892B49F080E0CC
:1003E00090E0892B29F00E94000081110E940000FA
:1003F00080E090E0892B49F080E090E0892B29F0A3
:100400000E94000081110E94000080E090E0892B92
:1004100049F080E090E0892B29F00E9400008111D2
:100420000C94000008953FB7F89480914302909196
:100430004402A0914502B091460226B5A89B05C092
:100440002F3F19F00196A11DB11D3FBFBA2FA92F53
:10045000982F8827BC01CD01620F711D811D911D50
:1004600042E0660F771F881F991F4A95D1F70895BC
:10047000FC0101900020E9F73197AF01481B590BAF
:10048000BC0183E592E00C949F008F929F92AF9203
:10049000BF920F931F93CF93DF93CDB7DEB7A19792
:1004A0000FB6F894DEBF0FBECDBF19A2423008F4DC
:1004B0004AE08E010F5D1F4F842E912CB12CA12C90
:1004C000A50194010E947F05E62FB901CA01EA3017
:1004D000F4F4E05DD801EE938D01232B242B252B22
:1004E00079F790E080E0109719F0CD010E94380272
:1004F000A1960FB6F894DEBF0FBECDBFDF91CF91AE
:100500001F910F91BF90AF909F908F900895E95CDD
:10051000E1CFCF92DF92EF92FF92CF93DF936B0107
:100520007C016DE283E592E00E947501EC01662793
:100530007727CB016C197D098E099F094AE00E943B
:1005400045028C0F9D1FDF91CF91FF90EF90DF90C0
:10055000CF9008950F931F93CF93DF93EC01888181
:100560009981009759F02A813B812617370730F08F
:1005700081E0DF91CF911F910F9108958B016F5F03
:100580007F4F0E94CF06009759F0998388831B8381
:100590000A832C813D81232B59F7FC011082E8CF7F
:1005A00080E0E7CF1F920F920FB60F9211240BB687
:1005B0000F922F933F934F935F936F937F938F93FC
:1005C0009F93AF93BF93EF93FF9383E592E00E94D5
:1005D0005301FF91EF91BF91AF919F918F917F91C7
:1005E0006F915F914F913F912F910F900BBE0F90A4
:1005F0000FBE0F901F9018951F920F920FB60F927B
:1006000011240BB60F922F938F939F93EF93FF9329
:10061000E0916302F09164028081E0916902F091BF
:100620006A0282FD1DC0908180916C028F5F8F7382
:1006300020916D02821741F0E0916C02F0E0ED5ADA
:10064000FD4F958F80936C02FF91EF919F918F9159
:100650002F910F900BBE0F900FBE0F901F9018950B
:100660008081F2CF1F920F920FB60F9211242F9319
:100670003F938F939F93AF93BF9380914F0290913D
:100680005002A0915102B09152023091420223E0F7
:10069000230F2D3758F50196A11DB11D209342025D
:1006A00080934F0290935002A0935102B093520254
:1006B0008091430290914402A0914502B09146027C
:1006C0000196A11DB11D8093430290934402A09313
:1006D0004502B0934602BF91AF919F918F913F9198
:1006E0002F910F900FBE0F901F90189526E8230FA3
:1006F0000296A11DB11DD2CFCF93DF93CDB7DEB748
:1007000028970FB6F894DEBF0FBECDBF789484B59E
:10071000826084BD84B5816084BD85B5826085BDFD
:1007200085B5816085BD80916E00816080936E008B
:10073000109281008091810082608093810080917D
:10074000810081608093810080918000816080932E
:1007500080008091B10084608093B1008091B000EE
:1007600081608093B00080919100826080939100BD
:1007700080919100816080939100809190008160D0
:10078000809390008091A10082608093A10080916D
:10079000A10081608093A1008091A000816080937E
:1007A000A00080912101826080932101809121012C
:1007B00081608093210180912001816080932001DC
:1007C00080917A00846080937A0080917A008260C0
:1007D00080937A0080917A00816080937A00809182
:1007E0007A00806880937A001092C100E0916302E1
:1007F000F091640282E08083E0915F02F0916002F8
:100800001082E0916102F09162028FEC808310927D
:100810006B02E0916702F091680286E08083E091CC
:100820006502F0916602808180618083E0916502BB
:10083000F0916602808188608083E0916502F0918A
:100840006602808180688083E0916502F091660293
:1008500080818F7D808310924802109247028AE047
:1008600090E090934C0280934B0210924E021092B3
:100870004D0210924A021092490220914D0230918D
:100880004E0280914B0290914C02281739070CF0D0
:1008900091C083E592E00E943D01181619066CF79D
:1008A00088E192E00E9438028AE292E00E943802D7
:1008B0001A8219821C821B821E821D8270E060E0F7
:1008C000CE0101960E94AA0229813A8181112BC092
:1008D0002115310519F0C9010E9446061A821982B4
:1008E0001E821D821C821B820E94EF0097FD23C086
:1008F0008F8318860D811E810F5F1F4FB801CE01B7
:1009000001960E94AA02882379F329813A818D8178
:100910009E81BE01695F7F4F820F931F0E94B907BE
:100920001E830D83E1CF1E821D826CE272E0C9013D
:100930000E94B907D9CFE980FA8060E070E0CB016E
:10094000E114F10419F0C7010E9443058B01709373
:100950004A0260934902E114F10419F0C7010E94B0
:100960004606B801110F880B990B97FF1FC00E9414
:1009700089028AE292E00E943802809149029091B5
:100980004A0220914702309148022817390724F47F
:10099000909348028093470280914D0290914E02BD
:1009A000019690934E0280934D0267CF4AE00E94D9
:1009B0004502DFCF8DE292E00E943802609147024B
:1009C00070914802072E000C880B990B97FF2AC0E4
:1009D0000E9489020E9413024B015C0184EFC82E21
:1009E000DD24D394E12CF12C0E94130268197909BB
:1009F0008A099B09683E734081059105A8F321E0AF
:100A0000C21AD108E108F10888EE880E83E0981E2A
:100A1000A11CB11CC114D104E104F10429F70E9406
:100A2000E2012BCF4AE00E944502D4CFE3E5F2E099
:100A30001382128288EE93E0A0E0B0E08483958375
:100A4000A683B7838AE092E09183808385EC90E06F
:100A50009587848784EC90E09787868780EC90E088
:100A6000918B808B81EC90E0938B828B82EC90E079
:100A7000958B848B86EC90E0978B868B118E128EF3
:100A8000138E148E08951F93FC0199278827BC01AB
:100A9000E89411911032E9F3193010F01E30C8F3C8
:100AA0001B3251F01D3249F4689406C00E946A0559
:100AB000610F711D811D911D119110531A30B0F3FA
:100AC0003EF490958095709561957F4F8F4F9F4F25
:100AD0001F910895592F482F372F262F660F771F04
:100AE000881F991F660F771F881F991F620F731F3A
:100AF000841F951F660F771F881F991F0895A1E215
:100B00001A2EAA1BBB1BFD010DC0AA1FBB1FEE1F87
:100B1000FF1FA217B307E407F50720F0A21BB30BD2
:100B2000E40BF50B661F771F881F991F1A9469F74E
:100B300060957095809590959B01AC01BD01CF01AA
:100B40000895EE0FFF1F0024001C0BBE0790F691C6
:100B5000E02D09940F931F93CF93DF93823091057B
:100B600010F482E090E0E091F202F091F30230E0C4
:100B700020E0B0E0A0E0309799F42115310509F4A8
:100B80004AC0281B390B24303105D8F58A819B8156
:100B90006115710589F1FB0193838283FE0111C008
:100BA000408151810281138148175907E0F04817AD
:100BB000590799F4109761F012960C9312971396B7
:100BC0001C933296CF01DF91CF911F910F91089521
:100BD0000093F2021093F302F4CF2115310551F086
:100BE0004217530738F0A901DB019A01BD01DF016B
:100BF000F801C1CFEF01F9CF9093F3028093F20295
:100C0000CDCFFE01E20FF31F819391932250310962
:100C100039832883D7CF2091F0023091F102232B22
:100C200041F420910202309103023093F1022093AB
:100C3000F00220910002309101022115310541F4AA
:100C40002DB73EB74091040250910502241B350B8D
:100C5000E091F002F091F102E217F307A0F42E1BED
:100C60003F0B2817390778F0AC014E5F5F4F241710
:100C7000350748F04E0F5F1F5093F1024093F0028A
:100C8000819391939FCFF0E0E0E09CCFCF93DF93EF
:100C90000097E9F0FC01329713821282A091F202D0
:100CA000B091F302ED0130E020E01097A1F4208133
:100CB0003181820F931F2091F0023091F1022817A9
:100CC000390709F061C0F093F102E093F002DF917F
:100CD000CF910895EA01CE17DF07E8F54A815B81DD
:100CE0009E0141155105B1F7E901FB83EA83499162
:100CF0005991C40FD51FEC17FD0761F480819181D4
:100D00000296840F951FE9019983888382819381DC
:100D10009B838A83F0E0E0E012968D919C9113977B
:100D20000097B9F52D913C911197CD010296820F54
:100D3000931F2091F0023091F1022817390739F6FC
:100D4000309751F51092F3021092F202B093F10233
:100D5000A093F002BCCFD383C28340815181840F22
:100D6000951FC817D90761F44E5F5F4F888199813D
:100D7000480F591F518340838A819B8193838283CB
:100D80002115310509F0B0CFF093F302E093F202A0
:100D90009ECFFD01DC01C0CF13821282D7CF4F92CC
:100DA0005F926F927F928F929F92AF92BF92CF92FB
:100DB000DF92EF92FF920F931F93CF93DF938C01FB
:100DC000009799F4CB01DF91CF911F910F91FF9084
:100DD000EF90DF90CF90BF90AF909F908F907F90DB
:100DE0006F905F904F900C94AA05FC01E60FF71FDF
:100DF0009C0122503109E217F30708F4AEC0D90173
:100E0000CD91DC911197C617D70720F1C530D105D8
:100E100078F0CE0104978617970750F0C61BD70BC2
:100E20002297C193D1936D937C93CF010E94460684
:100E3000C801DF91CF911F910F91FF90EF90DF904C
:100E4000CF90BF90AF909F908F907F906F905F906A
:100E50004F9008955B01AC1ABD0A4C018C0E9D1E8B
:100E6000A091F202B091F302512C412CF12CE12C13
:100E7000109731F58091F0029091F1028815990553
:100E800009F05CC04616570608F058C08091000271
:100E900090910102009741F48DB79EB740910402F2
:100EA00050910502841B950BE817F90708F055C00F
:100EB000F093F102E093F002F90171836083B8CFFF
:100EC0008D919C91119712966C90129713967C902D
:100ED0001397A815B90559F56C0142E0C40ED11C51
:100EE000CA14DB0420F1AC014A195B09DA0112963D
:100EF000159780F06282738251834083D9016D938C
:100F00007C93E114F10471F0D7011396FC93EE93F6
:100F100012978ECF22968C0F9D1FF90191838083AB
:100F2000F301EFCFF093F302E093F20281CF481682
:100F3000590608F42C017D01D3019ACFCB010E9400
:100F4000AA057C01009749F0AE01B8010E94B007E4
:100F5000C8010E94460687016BCF10E000E068CF11
:100F6000FB01DC0102C001900D9241505040D8F7C6
:100F70000895FB01DC0101900D920020E1F7089536
:040F8000F894FFCF13
:100F84000000F40280000000000075019F00CC0006
:100F9400C2013D01DB002F01696E67726573612038
:100FA400656C206E756D65726F000D0A00656C20AE
:100FB4006EC3BA6D65726F206D61796F722065734F
:020FC4003A00F1
:00000001FF
