:100000000C9422010C9453010C9453010C94530151
:100010000C9453010C9453010C9453010C94530110
:100020000C9453010C9453010C9453010C94530100
:100030000C9453010C9453010C9453010C945301F0
:100040000C9453010C9453010C9453010C945301E0
:100050000C9453010C9453010C9453010C94CC0355
:100060000C9453010C9453010C9453010C945301C0
:100070000C9453010C9453010C9453010C945301B0
:100080000C9453010C9453010C9453010C945301A0
:100090000C9453010C9453010C9453010C94530190
:1000A0000C9453010C9453010C9453010C94530180
:1000B0000C9453010C9453010C9453010C94530170
:1000C0000C9453010C9453010C9453010C94530160
:1000D0000C9453010C9453010C9453010C94530150
:1000E0000C9453010C94C6030C9427020C94070241
:1000F0000C940F020C9423020C94F4010C9415023E
:100100000C94D1010C94CC040C94F7010C9485024E
:100110000C94F0010C94E8010C941D020C9419024B
:100120000C94FD010C9474010C9401020C94EC01EC
:100130000C940B020C9484020C94D60100000A0B60
:1001400002090C0D0E080703040100000000000066
:10015000000000000000000000000000000000009F
:10016000000000000000000012111000000000005C
:10017000000000000000000000000000000000007F
:10018000000000002200250028002B002E00310076
:10019000340002010000050108010B0100002100EC
:1001A000240027002A002D00300033000101000048
:1001B000040107010A0105050505070508080808E7
:1001C000020202020A0A08080404040401010101EF
:1001D00001010101030303030303030304070707EA
:1001E0000C0C0C0C0C0C0C0C02020202060606068F
:1001F000060606060B0B0B0B0B0B0B0B010210205C
:10020000200808102040102040800201020108044C
:1002100002010102040810204080804020100804E0
:100220000201800402018040201008040201080439
:10023000020101020408102040800102040810207D
:100240004080CC0411241FBECFEFD1E2DEBFCDBF72
:1002500000E00CBF12E0A0E0B2E0E8EEF9E000E060
:100260000BBF02C007900D92A232B107D9F722E06E
:10027000A2E2B2E001C01D92A334B207E1F711E09F
:10028000C2E2D1E000E006C021970109802FFE0103
:100290000E94EA04C132D10780E00807A9F70E9452
:1002A00016040C94F2040C94000090E0FC01E4505D
:1002B000FE4F24918A549E4FFC018491882399F02B
:1002C00090E0880F991FFC01E456FE4FA591B49170
:1002D000FC01EE57FE4F859194918FB7F894EC9105
:1002E000E22BEC938FBF0895AF92BF92CF92DF9233
:1002F000EF92FF920F931F93CF93DF936C017B01DB
:100300008B01040F151FEB015E01AE18BF08C0176B
:10031000D10759F06991D601ED91FC910190F081DE
:10032000E02DC6011995892B79F7C501DF91CF9191
:100330001F910F91FF90EF90DF90CF90BF90AF9003
:100340000895282F30E0F901E45CFE4F9491F90103
:10035000E450FE4F44912A543E4FF9012491222348
:1003600009F435C0992311F191509231F8F4E92F35
:10037000F0E08827E154FE4F8F4F0C94EA04F0011F
:10038000F401D101E801EC01D601F701FD01010200
:1003900007020B020F0215021902D6011D022302E9
:1003A0002702809180008F7780938000E22FF0E019
:1003B000EE0FFF1FEE57FE4FA591B4918FB7F89443
:1003C000EC91611148C040954E234C938FBF089526
:1003D000809180008F7DE8CF80918000877FE4CF7F
:1003E00084B58F7784BDE2CF84B58F7DFBCF8091BC
:1003F000B0008F778093B000D9CF8091B0008F7D0F
:10040000F9CF809190008F7780939000CFCF80912B
:1004100090008F7DF9CF80919000877FF5CF8091FC
:10042000A0008F778093A000C1CF8091A0008F7D26
:10043000F9CF8091A000877FF5CF809120018F7741
:1004400080932001B3CF809120018F7DF9CF8091DF
:100450002001877FF5CF4E2BB8CF3FB7F89480911E
:10046000270290912802A0912902B0912A0226B574
:10047000A89B05C02F3F19F00196A11DB11D3FBFDC
:10048000BA2FA92F982F8827BC01CD01620F711DAB
:10049000811D911D42E0660F771F881F991F4A95A5
:1004A000D1F708958F929F92AF92BF92CF92DF9231
:1004B000EF92FF924B015C010E942D026B017C01C7
:1004C0000E942D026C197D098E099F09683E7340B8
:1004D00081059105A8F321E0821A9108A108B108CD
:1004E00088EEC80E83E0D81EE11CF11C8114910433
:1004F000A104B10429F7FF90EF90DF90CF90BF9057
:10050000AF909F908F900895089590E080E00895B7
:10051000CF93DF93EC0160E08E810E94A10161E046
:100520008E810E94A10160E08E810E94A1018BE872
:1005300091E00197F1F7DF91CF910895CF92DF928B
:10054000EF92FF920F931F93CF93DF936C017C0187
:1005500087E0E80EF11CD0E0C0E0062F10E0B80103
:100560000C2E02C0759567950A94E2F76170F70149
:1005700081917F010E94A1012196C430D10579F7B4
:10058000C601DF91CF911F910F91FF90EF90DF9007
:10059000CF900C948802CF92DF92EF92FF920F934C
:1005A0001F93CF93DF93EC01F62E642F8C810E9472
:1005B000A1018D818F3F19F060E00E94A1010F2DF4
:1005C00010E08F8584FF25C06E0187E0C80ED11C26
:1005D000F12CE12CB8010E2C02C0759567950A9498
:1005E000E2F76170F60181916F010E94A101FFEFB6
:1005F000EF1AFF0A88E0E816F10461F7CE01DF91F7
:10060000CF911F910F91FF90EF90DF90CF900C94BE
:100610008802B80184E0759567958A95E1F7CE0167
:100620000E949E026F2DCE01DF91CF911F910F91FD
:10063000FF90EF90DF90CF900C949E0240E0682FE7
:100640008BE292E00C94CB02CF93DF93823029F4BB
:1006500090913A02986090933A0280933E021092F1
:100660003F0280E48093400280E18093410280E574
:100670008093420280912F020E94550180913002A6
:100680008F3F11F00E945501809131020E94550167
:10069000CBE2D2E09E012B52324080913A0284FD9F
:1006A0000AC084E090E02196281739073CF48E8137
:1006B0000E945501EFCF88E090E0F5CF8BE39DE0FD
:1006C0000197F1F760E080912F020E94A10160E0A4
:1006D000809131020E94A101809130028F3F19F078
:1006E00060E00E94A10180913A0284FD39C063E07C
:1006F0008BE292E00E949E02CBE4D6E4CE01019709
:10070000F1F763E08BE292E00E949E022197F1F7FD
:1007100063E08BE292E00E949E0283E592E0019703
:10072000F1F762E08BE292E00E949E0280913A0231
:1007300080620E941E0384E080933B028CE00E9452
:100740001E0381E00E941E038BE39FE10197F1F7F6
:1007500082E080933C0286E0DF91CF910C941E03EF
:1007600080620E941E038BE496E40197F1F780916A
:100770003A0280620E941E0383E592E00197F1F73E
:1007800080913A0280620E941E03D0CF41E00E9415
:10079000CB0281E090E008951F920F920FB60F9266
:1007A00011242F933F938F939F93AF93BF93809187
:1007B000230290912402A0912502B091260230914B
:1007C000220223E0230F2D3758F50196A11DB11DFC
:1007D000209322028093230290932402A093250267
:1007E000B09326028091270290912802A0912902BD
:1007F000B0912A020196A11DB11D8093270290930A
:100800002802A0932902B0932A02BF91AF919F9131
:100810008F913F912F910F900FBE0F901F901895C1
:1008200026E8230F0296A11DB11DD2CF789484B57E
:10083000826084BD84B5816084BD85B5826085BDDC
:1008400085B5816085BD80916E00816080936E006A
:10085000109281008091810082608093810080915C
:10086000810081608093810080918000816080930D
:1008700080008091B10084608093B1008091B000CD
:1008800081608093B000809191008260809391009C
:1008900080919100816080939100809190008160AF
:1008A000809390008091A10082608093A10080914C
:1008B000A10081608093A1008091A000816080935D
:1008C000A00080912101826080932101809121010B
:1008D00081608093210180912001816080932001BB
:1008E00080917A00846080937A0080917A0082609F
:1008F00080937A0080917A00816080937A00809161
:100900007A00806880937A001092C10082E00E9491
:10091000240345E150E06CE072E08BE292E00E943B
:10092000740168EE73E080E090E00E94520200E003
:1009300010E0C5E1D0E088E10E941E0366E970E0A6
:1009400080E090E00E9452022197A9F7C5E2D0E032
:100950008CE10E941E0366E970E080E090E00E9456
:1009600052022197A9F7C0E1D0E088E10E941E035E
:1009700066E970E080E090E00E9452022197A9F7BA
:1009800068EE73E080E090E00E94520201151105CC
:1009900081F20E940000CDCFEBE2F2E013821282DE
:1009A00084E092E0918380838CE084838FEF858361
:1009B0008BE0868385E0878384E0808783E081877E
:1009C00082E082871386148615861686178681E054
:1009D0000C942403EE0FFF1F881F8BBF0790F69126
:0809E000E02D1994F894FFCFFB
:1009E80000000000C603740185028402486F6C6130
:1009F8002C20616D69676F212C2053616C75646FC1
:020A0800730079
:00000001FF
