:10000000EFC000001CC100001AC1000018C10000B0
:1000100016C1000014C1000012C1000010C1000090
:100020000EC100000CC100000AC1000008C10000A0
:1000300006C1000004C1000002C1000000C10000B0
:10004000FEC00000FCC00000FAC00000F8C00000C4
:10005000F6C00000F4C00000F2C0000065C200005D
:10006000EEC00000D4C20000A9C20000E8C0000039
:10007000E6C00000E4C00000E2C00000E0C00000F4
:10008000DEC00000DCC00000DAC00000D8C0000004
:10009000D6C00000D4C00000D2C00000D0C0000014
:1000A000CEC00000CCC00000CAC00000C8C0000024
:1000B000C6C00000C4C00000C2C00000C0C0000034
:1000C000BEC00000BCC00000BAC00000B8C0000044
:1000D000B6C00000B4C00000B2C00000B0C0000054
:1000E000AEC0000000407A10F35A00A0724E18090A
:1000F0000010A5D4E80000E87648170000E40B548F
:10010000020000CA9A3B000000E1F505000080965D
:100110009800000040420F000000A086010000008F
:10012000102700000000E803000000006400000049
:1001300000000A00000000000100000000002C7612
:10014000D888DC674F0823DFC1DFAE59E1B1B7962D
:10015000E5E3E453C63AE651997696E8E6C284268A
:10016000EB898C9B62ED407C6FFCEFBC9C9F40F266
:10017000BAA56FA5F490055A2AF75C936B6CF967E2
:100180006DC11BFCE0E40D47FEF520E6B500D0EDA7
:10019000902E0300943577050080841E080000200F
:1001A0004E0A000000C80C333333330F986E1283AD
:1001B0001141EF8D2114893BE65516CFFEE6DB1881
:1001C000D1844B381BF77C1D901DA4BBE424203246
:1001D00084725E228100C9F124ECA1E53D279104DF
:1001E00011241FBECFEFD1E2DEBFCDBF00E00CBFB8
:1001F00022E0AAE2B2E001C01D92A43DB207E1F7FD
:1002000012E0A0E0B2E0E6E4F5E100E00BBF02C0DE
:1002100007900D92AA32B107D9F710E0C0EFD0E0F5
:1002200000E005C021970109802FFE016DD7CF3E68
:10023000D10780E00807B1F720D20C94A10AE0CEE4
:10024000CF92DF92EF92FF920F931F93CF93DF93A2
:100250006C017A018B01C0E0D0E0CE15DF0581F0A2
:10026000D8016D918D01D601ED91FC910190F08145
:10027000E02DC6011995892B11F02196EECF7E0154
:10028000C701DF91CF911F910F91FF90EF90DF9009
:10029000CF900895089580E090E00895FC01538D7B
:1002A000448D252F30E0842F90E0821B930B541750
:1002B00010F0CF96089501970895FC01918D828DDD
:1002C000981761F0828DDF01A80FB11D5D968C91AA
:1002D000928D9F5F9F73928F90E008958FEF9FEFB5
:1002E0000895FC01918D828D981731F0828DE80F71
:1002F000F11D858D90E008958FEF9FEF0895FC012B
:10030000918D228D892F90E0805C9F4F821B9109F7
:100310008F73992708958AE292E0F1DF21E0892B1B
:1003200009F420E0822F0895FC01848DDF01A80FDD
:10033000B11DA35ABF4F2C91848D90E001968F730D
:100340009927848FA689B7892C93A089B1898C912C
:10035000837080648C93938D848D981306C002887B
:10036000F389E02D80818F7D80830895EF92FF9245
:100370000F931F93CF93DF93EC0181E0888F9B8DC8
:100380008C8D981305C0E889F989808185FD25C089
:10039000F62E0B8D10E00F5F1F4F0F731127E02E0D
:1003A0008C8DE8120BC00FB607FCFACFE889F989EB
:1003B000808185FFF5CFCE01B7DFF2CF8B8DFE01B7
:1003C000E80FF11DE35AFF4FF0829FB7F8940B8FAF
:1003D000EA89FB89808180620AC09FB7F894EE8920
:1003E000FF896083E889F9898081837080648083D4
:1003F0009FBF81E090E0DF91CF911F910F91FF901F
:10040000EF900895CF93DF93EC01888D8823C1F09E
:10041000EA89FB89808185FD05C0A889B9898C910D
:1004200086FD0EC00FB607FCF5CF808185FFF2CFA9
:10043000A889B9898C9185FFEDCFCE0175DFE8CF12
:10044000DF91CF91089580E090E0892B19F063DF70
:10045000811125C080E090E0892B41F080E090E0A0
:10046000892B21F00E94000081111CC080E090E0E7
:10047000892B41F080E090E0892B21F00E94000060
:10048000811113C080E090E0892BA1F080E090E022
:10049000892B81F00E94000081110AC008950E94FA
:1004A0000000D8CF0E940000E1CF0E940000EACFF8
:1004B0000C9400000895CF93DF93EC01888199811B
:1004C000009709F0C1D6198218821D821C821B82F6
:1004D0001A82DF91CF9108950E948D0A0F931F9386
:1004E000CF93DF93EC0188819981009729F02A81CD
:1004F0003B812617370780F48B016F5F7F4F2DD725
:10050000009761F0998388831B830A832C813D8146
:10051000232B11F4FC01108281E001C080E0DF9107
:10052000CF911F910F9108951F920F920FB60F92C6
:1005300011242F933F938F939F93AF93BF938091F9
:10054000CC029091CD02A091CE02B091CF02309119
:10055000CB0223E0230F2D3720F40196A11DB11DFE
:1005600005C026E8230F0296A11DB11D2093CB02E2
:100570008093CC029093CD02A093CE02B093CF0291
:100580008091C7029091C802A091C902B091CA029D
:100590000196A11DB11D8093C7029093C802A0933C
:1005A000C902B093CA02BF91AF919F918F913F91C1
:1005B0002F910F900FBE0F901F9018951F920F92C2
:1005C0000FB60F9211240BB60F922F933F934F93B8
:1005D0005F936F937F938F939F93AF93BF93EF93AB
:1005E000FF938AE292E0A0DEFF91EF91BF91AF917D
:1005F0009F918F917F916F915F914F913F912F913B
:100600000F900BBE0F900FBE0F901F9018951F926A
:100610000F920FB60F9211240BB60F922F938F9358
:100620009F93EF93FF93E0913A02F0913B02808118
:10063000E0914002F091410282FD12C090818091D0
:1006400043028F5F8F7320914402821751F0E09133
:100650004302F0E0E65DFD4F958F8093430201C0B9
:100660008081FF91EF919F918F912F910F900BBE01
:100670000F900FBE0F901F901895CF93DF93CDB7BB
:10068000DEB7A7970FB6F894DEBF0FBECDBF789444
:1006900084B5826084BD84B5816084BD85B5826087
:1006A00085BD85B5816085BD80916E008160809338
:1006B0006E001092810080918100826080938100A1
:1006C00080918100816080938100809180008160B1
:1006D000809380008091B10084608093B10080910C
:1006E000B00081608093B00080919100826080931F
:1006F00091008091910081608093910080919000A1
:100700008160809390008091A10082608093A1001D
:100710008091A10081608093A1008091A000816000
:100720008093A000809121018260809321018091BB
:10073000210181608093210180912001816080935B
:10074000200180917A00846080937A0080917A0001
:10075000826080937A0080917A00816080937A0031
:1007600080917A00806880937A001092C100E091B5
:100770003A02F0913B0282E08083E0913602F091F0
:1007800037021082E0913802F09139028FEC8083B9
:1007900010924202E0913E02F0913F0286E0808397
:1007A000E0913C02F0913D02808180618083E09184
:1007B0003C02F0913D02808188608083E0913C02A0
:1007C000F0913D02808180688083E0913C02F0914D
:1007D0003D0280818F7D808380E4F82E80917B00B4
:1007E000877F80937B00F0927C0080917A00806408
:1007F00080937A0080917A0086FDFCCF609178002A
:10080000809179001BA21AA21DA21CA21FA21EA2E7
:1008100070E0782B072E000C880B990B1ED320E07C
:1008200030E040EA50E454D320E030EC4FE754E4A9
:1008300003D420E030E048EC52E44AD38E010F5F4D
:100840001F4F22E044E09AD06C01009771F0FC0148
:1008500001900020E9F731978F01081B190BB801AF
:10086000CE0182963BDE811104C0CE01829623DE4A
:1008700006C01FA30EA3B6018AA19BA15BD61A8254
:1008800019821C821B821E821D826DE070E0CE01E7
:10089000019624DE811104C0CE0101960CDE09C050
:1008A0008DE090E09E838D8368E172E089819A817A
:1008B00041D60EA11FA1CAA0DBA0C114D10469F1C9
:1008C00001151105A1F08D819E81080F191FB80136
:1008D000CE01019603DE882301F129813A818D81C1
:1008E0009E81B601820F931F25D61E830D834D81F5
:1008F0005E8169817A818AE292E0A2DC42E050E086
:1009000066E272E08AE292E09BDC89819A819CD463
:100910008AA19BA199D497DD61CFCE010196CBDD51
:10092000E6CFEAE2F2E01382128288EE93E0A0E0E2
:10093000B0E084839583A683B7838AE092E09183B5
:10094000808385EC90E09587848784EC90E097879E
:10095000868780EC90E0918B808B81EC90E0938B8C
:10096000828B82EC90E0958B848B86EC90E0978B69
:10097000868B118E128E138E148E0895EF920F9324
:100980001F93CF93DF93E80147FD02C034E001C01D
:1009900034E1042E000C550B57FF03C051954195CF
:1009A0005109E32E022F242FAE0107D0CE01DF9193
:1009B000CF911F910F91EF9008958F929F92AF92D8
:1009C000BF92CF92DF92EF92FF920F931F93CF933C
:1009D000DF93CDB7DEB729970FB6F894DEBF0FBE11
:1009E000CDBF6A01122FB02E2BE3201720F0FF2479
:1009F000F394F00E02C02CE3F22E0F2D27E0AE018F
:100A00004F5F5F4F50D1BC014981842F8970813085
:100A100031F0E1FC06C0E0FE06C090E205C09DE2B8
:100A200003C09BE201C090E05E2D507143FF3CC0CB
:100A3000911102C083E001C084E0811718F4212FD6
:100A4000281B01C020E051110BC0F601822F30E2BB
:100A5000882319F031938150FBCFC20ED11C20E0C6
:100A6000992329F0D6019C93F60131966F01C601B6
:100A70000396E2FE0AC03EE4D6013C9341E411969F
:100A80004C93119712963C9306C03EE6F6013083D4
:100A900041E641833283FC01322F40E2332309F4E3
:100AA00042C041933150FACF42FF44C0911102C07D
:100AB00083E001C084E0811718F4212F281B01C0B6
:100AC00020E051110BC0F601822F30E2882319F08B
:100AD00031938150FBCFC20ED11C20E0992329F025
:100AE000D6019C93F60131966F01C6010396E2FE92
:100AF0000BC039E4D6013C933EE411963C93119728
:100B000036E412963C9307C039E6F60130833EE6A0
:100B1000318336E63283FC01322F40E2332319F071
:100B200041933150FBCFFC01E20FF11D10828EEF9B
:100B30009FEFA6C021E030E0911102C020E030E03C
:100B4000161617061CF4FB01319602C0E1E0F0E036
:100B50002E0F3F1FBB2021F0EB2DF0E0319602C09D
:100B6000E0E0F0E02E0F3F1FE12FF0E02E173F07EF
:100B70001CF4121B212F01C020E08E2D887159F426
:100B8000F601822F30E2882319F031938150FBCF98
:100B9000C20ED11C20E0992329F0D6019C93F601C6
:100BA00031966F0151110BC0F601822F90E388231B
:100BB00019F091938150FBCFC20ED11C20E00F2D74
:100BC000060F9A81342F307144FF03C0913309F42A
:100BD0000150101624F4093018F008E001C001E0BB
:100BE000AB0177FF02C040E050E0FB01E41BF50BD6
:100BF000A1E0B0E0AC0FBD1FEA0FFB1F8EE2A82EF4
:100C00004B01801A91080B2D10E0119501951109E7
:100C10004F3FBFEF5B0721F4D601AC9211966D01F7
:100C2000641775072CF08416950614F4818101C0B1
:100C300080E3415051093196D60111967D0140174C
:100C4000510724F0D6018C936701E2CF6417750732
:100C500039F4963320F4953319F4311101C081E34E
:100C6000F6018083F701822F90E2882319F0919397
:100C70008150FBCFF701E20FF11D108280E090E080
:100C800029960FB6F894DEBF0FBECDBFDF91CF918E
:100C90001F910F91FF90EF90DF90CF90BF90AF909A
:100CA0009F908F900895283008F027E03327DA01CD
:100CB000990F311D87FD916000966105710539F42A
:100CC00032602E5F3D9330E32A95E1F708959F3F10
:100CD00030F080387105610509F03C5F3C5F3D9361
:100CE000913008F08068911DDF93CF931F930F938D
:100CF000FF92EF92192F987F9695E92F96959695EA
:100D0000E90FFF27E25CFE4F99273327EE24FF24EB
:100D1000A701E70105900894079428F4360FE71E11
:100D2000F81E491F511D660F771F881F991F0694D3
:100D3000A1F70590079428F4E70EF81E491F561FE7
:100D4000C11D770F881F991F661F0694A1F7059094
:100D5000079428F4F80E491F561FC71FD11D880F8E
:100D6000991F661F771F0694A1F70590079420F43A
:100D7000490F561FC71FD81F990F661F771F881F5F
:100D80000694A9F784911095177041F0D695C795F0
:100D900057954795F794E7941A95C1F7E4EEF0E07C
:100DA00068941590159135916591959105907FE224
:100DB0007395E118F10A430B560BC90BD009C0F724
:100DC000E10CF11E431F561FC91FD01D7EF4703366
:100DD00011F48A95E6CFE894015030F0080F0AF438
:100DE0000027021708F4202F2395022F7A3328F0CA
:100DF00079E37D932A95E9F710C07D932A9589F6CA
:100E0000069497956795379517951794E118F10A09
:100E1000430B560BC90BD00998F023957E9173951F
:100E20007A3308F070E37C932013B8F77E917061F9
:100E30007D9330F0839571E37D9370E32A95E1F71C
:100E40001124EF90FF900F911F91CF91DF9199277F
:100E500087FD90950895E89409C097FB3EF490951E
:100E60008095709561957F4F8F4F9F4F9923A9F083
:100E7000F92F96E9BB279395F69587957795679512
:100E8000B795F111F8CFFAF4BB0F11F460FF1BC056
:100E90006F5F7F4F8F4F9F4F16C0882311F096E9E9
:100EA00011C0772321F09EE8872F762F05C0662397
:100EB00071F096E8862F70E060E02AF09A95660F50
:100EC000771F881FDAF7880F9695879597F9089509
:100ED0000BD078C069D028F06ED018F0952309F0B7
:100EE0005AC05FC01124A2C07ED0A0F3959FD1F359
:100EF000950F50E0551F629FF001729FBB27F00DC8
:100F0000B11D639FAA27F00DB11DAA1F649F66271C
:100F1000B00DA11D661F829F2227B00DA11D621F6B
:100F2000739FB00DA11D621F839FA00D611D221F25
:100F3000749F3327A00D611D231F849F600D211D09
:100F4000822F762F6A2F11249F5750408AF0E1F0AC
:100F500088234AF0EE0FFF1FBB1F661F771F881FF5
:100F600091505040A9F79E3F510570F014C05EC0EB
:100F70005F3FECF3983EDCF3869577956795B795E0
:100F8000F795E7959F5FC1F7FE2B880F911D96950A
:100F9000879597F9089597F99F6780E870E060E07A
:100FA00008959FEF80EC089500240A941616170602
:100FB00018060906089500240A941216130614064A
:100FC00005060895092E0394000C11F4882352F0AD
:100FD000BB0F40F4BF2B11F460FF04C06F5F7F4F65
:100FE0008F4F9F4F089557FD9058440F551F59F04C
:100FF0005F3F71F04795880F97FB991F61F09F3F06
:1010000079F087950895121613061406551FF2CF2E
:101010004695F1DF08C0161617061806991FF1CF7E
:1010200086957105610508940895E894BB276627A5
:101030007727CB0197F908950CD0C4CFBCDF40F0DF
:10104000B3DF30F021F45F3F19F0A5CF5111EECF9F
:10105000A8CFC9DF98F39923C9F35523B1F3951BA2
:10106000550BBB27AA2762177307840738F09F5FC9
:101070005F4F220F331F441FAA1FA9F333D00E2E38
:101080003AF0E0E830D091505040E695001CCAF7A5
:1010900029D0FE2F27D0660F771F881FBB1F26176A
:1010A00037074807AB07B0E809F0BB0B802DBF013D
:1010B000FF2793585F4F2AF09E3F510568F06BCF92
:1010C000B5CF5F3FECF3983EDCF386957795679557
:1010D000B795F7959F5FC9F7880F911D96958795EE
:1010E00097F90895E1E0660F771F881FBB1F62170D
:1010F00073078407BA0720F0621B730B840BBA0BCB
:10110000EE1F88F7E0950895EE0FFF1F881F8BBF35
:101110000790F691E02D19940F931F93CF93DF93CF
:101120008230910510F482E090E0E091D202F091DB
:10113000D30220E030E0A0E0B0E0309719F1408128
:1011400051810281138148175907C8F08417950708
:1011500069F4109731F012960C93129713961C9322
:1011600027C00093D2021093D30222C0211531056B
:1011700019F04217530718F49A01BD01EF01DF017E
:10118000F801DBCF21153105F9F0281B390B24308C
:10119000310580F48A819B816115710521F0FB0185
:1011A0009383828304C09093D3028093D202FE0182
:1011B000329644C0FE01E20FF31F819391932250B7
:1011C0003109398328833AC02091D0023091D1026D
:1011D000232B41F420910202309103023093D1027B
:1011E0002093D00220910002309101022115310597
:1011F00041F42DB73EB74091040250910502241BE3
:10120000350BE091D002F091D102E217F307A0F480
:101210002E1B3F0B2817390778F0AC014E5F5F4F4C
:101220002417350748F04E0F5F1F5093D1024093AB
:10123000D0028193919302C0E0E0F0E0CF01DF9112
:10124000CF911F910F910895CF93DF93009709F4E9
:1012500081C0FC01329713821282A091D202B09118
:10126000D302109781F420813181820F931F209146
:10127000D0023091D1022817390751F5F093D102ED
:10128000E093D00267C0ED0120E030E0CE17DF0729
:1012900040F44A815B819E0141155105F1F0EA015C
:1012A000F5CFD383C28340815181840F951FC81726
:1012B000D90759F488819981840F951F02969183EB
:1012C00080838A819B81938382832115310529F450
:1012D000F093D302E093D2023DC0E901FB83EA839D
:1012E00049915991C40FD51FEC17FD0761F4808116
:1012F0009181840F951F0296E901998388838281E9
:1013000093819B838A83E0E0F0E012968D919C911B
:101310001397009719F0FD01DC01F7CF8D919C9197
:1013200011979D012E5F3F4F820F931F2091D00296
:101330003091D1022817390769F4309729F41092B7
:10134000D3021092D20202C013821282B093D10251
:10135000A093D002DF91CF9108956F927F928F92E8
:101360009F92AF92BF92CF92DF92EF92FF920F9334
:101370001F93CF93DF93009781F4CB01DF91CF913F
:101380001F910F91FF90EF90DF90CF90BF90AF90A3
:101390009F908F907F906F90BFCEFC01E60FF71F5C
:1013A0009C0122503109E217F30708F4A5C0EC01B3
:1013B000D9010D911C91119706171707A8F0053058
:1013C000110508F497C0C80104978617970708F419
:1013D00091C002501109061B170B019311936D93D5
:1013E0007C93CF0131DF86C05B01A01AB10A4C01AA
:1013F000800E911EA091D202B091D302612C712C6B
:10140000E12CF12C109709F446C08D919C91119715
:10141000A815B905B1F56C0142E0C40ED11CCA147F
:10142000DB0478F14C018A189B08640142E0C40E89
:10143000D11C1296BC9012971396AC91B5E0CB16C6
:10144000D10440F0B282A38391828082D9016D934E
:101450007C9309C00E5F1F4F800F911FF90191838C
:101460008083EB2DFA2FE114F10431F0D7011396AC
:10147000FC93EE9312973EC0F093D302E093D20216
:1014800039C06816790608F43C017D0112960D906A
:10149000BC91A02DB7CF8091D0029091D102881637
:1014A0009906E1F466167706C8F4809100029091DF
:1014B0000102009741F48DB79EB74091040250910C
:1014C0000502841B950BE817F907B0F4F093D102DD
:1014D000E093D002F901718360830CC0CB011CDE64
:1014E0007C01009749F0A801BE011BD0CE01ACDE03
:1014F000C70104C0CE0102C080E090E0DF91CF912F
:101500001F910F91FF90EF90DF90CF90BF90AF9021
:101510009F908F907F906F90089581E090E0F89475
:1015200010C0FB01DC0102C001900D9241505040FF
:10153000D8F70895FB01DC0101900D920020E1F73E
:061540000895F894FFCFAE
:101546000000D402800000000000B60120014E0118
:1015560002027F015D01710154656D7065726174EF
:0A1566007572613A20000D0A0000C2
:00000001FF
