:1000000014C1000040C100003EC100003CC100001E
:100010003AC1000038C1000036C1000034C1000000
:1000200032C1000030C100002EC100002CC1000010
:100030002AC1000028C1000026C1000024C1000020
:1000400022C1000020C100001EC100001CC1000030
:100050001AC1000018C1000016C1000016C400003B
:1000600012C1000085C400005AC400000CC1000089
:100070000AC1000008C1000006C1000004C1000060
:1000800002C1000000C10000FEC00000FCC0000072
:10009000FAC00000F8C00000F6C00000F4C0000084
:1000A000F2C00000F0C00000EEC00000ECC0000094
:1000B000EAC00000E8C00000E6C00000E4C00000A4
:1000C000E2C00000E0C00000DEC00000DCC00000B4
:1000D000DAC00000D8C00000D6C00000D4C00000C4
:1000E000D2C000005E016101500154015A01980123
:1000F000650169016F01730177017D01810185014E
:1001000098018B018F01930100002100240027003A
:100110002A002D0030003300010100000401070116
:100120000A0100002200250028002B002E003100CB
:10013000340002010000050108010B01000020004D
:100140002300260029002C002F00320000010000AF
:10015000030106010901050505050705080808084A
:10016000020202020A0A080804040404010101014F
:10017000010101010303030303030303040707074A
:100180000C0C0C0C0C0C0C0C0202020206060606EF
:10019000060606060B0B0B0B0B0B0B0B01021020BC
:1001A00020080810204010204080020102010804AD
:1001B0000201010204081020408080402010080441
:1001C000020180040201804020100804020108049A
:1001D00002010102040810204080010204081020DE
:1001E000408000000A0B02090C0D0E0807030401F1
:1001F00000000000000000000000000000000000FF
:1002000000000000000000000000000000001211CB
:1002100010000000000000000000000000000000CE
:1002200000000000000000005D0611241FBECFEF9B
:10023000D1E2DEBFCDBF00E00CBF22E0AEE1B2E014
:1002400001C01D92AB3CB207E1F712E0A0E0B2E0C2
:10025000E8EBF1E100E00BBF02C007900D92AE3178
:10026000B107D9F711E0C5E1D1E000E005C0219761
:100270000109802FFE0181D5C431D10780E0080734
:10028000B1F7ACD397C7BCCE90E0FC013197E23117
:10029000F10508F04DC08827EE58FF4F8F4F6DC510
:1002A000809180008F7703C0809180008F7D809344
:1002B0008000089580918000877FF9CF84B58F7783
:1002C00002C084B58F7D84BD08958091B0008F7782
:1002D00003C08091B0008F7D8093B000089580911D
:1002E00090008F7707C0809190008F7D03C0809130
:1002F0009000877F8093900008958091A0008F7771
:1003000007C08091A0008F7D03C08091A000877FEF
:100310008093A0000895809120018F7707C080917D
:1003200020018F7D03C080912001877F8093200171
:100330000895CF93DF93282F30E0F901EE51FE4F5F
:100340008491F901E456FE4FD491F901EA5AFE4F27
:10035000C491CC2389F0811197DFEC2FF0E0EE0FF0
:10036000FF1FE45CFE4FA591B491EC91ED2381E079
:1003700090E021F480E002C080E090E0DF91CF9136
:1003800008951F93CF93DF93282F30E0F901EE51AA
:10039000FE4F8491F901E456FE4FD491F901EA5AD7
:1003A000FE4FC491CC23B9F0162F81116DDFEC2FD5
:1003B000F0E0EE0FFF1FEE5DFE4FA591B4919FB7E9
:1003C000F894111104C08C91D095D82302C0EC91FF
:1003D000DE2BDC939FBFDF91CF911F910895CF93C8
:1003E000DF9390E0FC01E456FE4F2491FC01EA5AB1
:1003F000FE4F8491882361F190E0880F991FFC01E2
:10040000E85FFE4FC591D491FC01EE5DFE4FA591D2
:10041000B491611109C09FB7F89488812095822317
:100420008883EC912E230BC0623061F49FB7F8945F
:100430008881322F309583238883EC912E2B2C9347
:100440009FBF06C08FB7F894E8812E2B28838FBFFB
:10045000DF91CF9108953FB7F8948091C3029091B6
:10046000C402A091C502B091C60226B5A89B05C0E2
:100470002F3F19F00196A11DB11D3FBFBA2FA92F23
:10048000982F8827820F911DA11DB11DBC01CD01A0
:1004900042E0660F771F881F991F4A95D1F708958C
:1004A000CF92DF92EF92FF920F931F93CF93DF9340
:1004B0006C017A018B01C0E0D0E0CE15DF0581F040
:1004C000D8016D918D01D601ED91FC910190F081E3
:1004D000E02DC6011995892B11F02196EECF7E01F2
:1004E000C701DF91CF911F910F91FF90EF90DF90A7
:1004F000CF900895089580E090E00895FC01538D19
:10050000448D252F30E0842F90E0821B930B5417ED
:1005100010F0CF96089501970895FC01918D828D7A
:10052000981761F0828DDF01A80FB11D5D968C9147
:10053000928D9F5F9F73928F90E008958FEF9FEF52
:100540000895FC01918D828D981731F0828DE80F0E
:10055000F11D858D90E008958FEF9FEF0895FC01C8
:10056000918D228D892F90E0805C9F4F821B910995
:100570008F73992708958EE192E0F1DF21E0892BB6
:1005800009F420E0822F0895FC01848DDF01A80F7B
:10059000B11DA35ABF4F2C91848D90E001968F73AB
:1005A0009927848FA689B7892C93A089B1898C91CA
:1005B000837080648C93938D848D981306C0028819
:1005C000F389E02D80818F7D80830895EF92FF92E3
:1005D0000F931F93CF93DF93EC0181E0888F9B8D66
:1005E0008C8D981305C0E889F989808185FD25C027
:1005F000F62E0B8D10E00F5F1F4F0F731127E02EAB
:100600008C8DE8120BC00FB607FCFACFE889F98988
:10061000808185FFF5CFCE01B7DFF2CF8B8DFE0154
:10062000E80FF11DE35AFF4FF0829FB7F8940B8F4C
:10063000EA89FB89808180620AC09FB7F894EE89BD
:10064000FF896083E889F989808183708064808371
:100650009FBF81E090E0DF91CF911F910F91FF90BC
:10066000EF900895CF93DF93EC01888D8823C1F03C
:10067000EA89FB89808185FD05C0A889B9898C91AB
:1006800086FD0EC00FB607FCF5CF808185FFF2CF47
:10069000A889B9898C9185FFEDCFCE0175DFE8CFB0
:1006A000DF91CF91089580E090E0892B19F063DF0E
:1006B000811125C080E090E0892B41F080E090E03E
:1006C000892B21F00E94000081111CC080E090E085
:1006D000892B41F080E090E0892B21F00E940000FE
:1006E000811113C080E090E0892BA1F080E090E0C0
:1006F000892B81F00E94000081110AC008950E9498
:100700000000D8CF0E940000E1CF0E940000EACF95
:100710000C9400000895CF93DF93EC0188819981B8
:10072000009709F0CAD3198218821D821C821B828D
:100730001A82DF91CF91089529D50F931F93CF93FC
:10074000DF93EC0188819981009729F02A813B8110
:100750002617370780F48B016F5F7F4F37D40097E0
:1007600061F0998388831B830A832C813D81232B2D
:1007700011F4FC01108281E001C080E0DF91CF9193
:100780001F910F910895CF92DF92EF92FF920F93F6
:100790001F93CF93DF93CDB7DEB762970FB6F89470
:1007A000DEBF0FBECDBF8C01CB01F80111821082DC
:1007B00013821282158214824AE09E012F5F3F4FFE
:1007C0006901B901A7D2F60101900020E9F731973C
:1007D0007F01EC18FD08B701C801AFDF811103C02C
:1007E000C80199DF07C0F801F582E482B601808173
:1007F0009181D9D462960FB6F894DEBF0FBECDBFFB
:10080000DF91CF911F910F91FF90EF90DF90CF90EC
:100810000895EF92FF920F931F93CF93DF9361158B
:10082000710511F480E01AC041155105B1F07B014A
:10083000EC018C819D818A01080F191FB801CE013E
:100840007CDF882379F3288139818C819D81B701F0
:10085000820F931FA8D41D830C8381E0DF91CF9179
:100860001F910F91FF90EF900895CF93DF93EC01CC
:1008700041E050E068E172E0CCDF811102C0CE01BE
:100880004ADFCE01DF91CF9108951F920F920FB6EC
:100890000F9211242F933F938F939F93AF93BF9306
:1008A0008091BF029091C002A091C102B091C2029A
:1008B0003091BE0223E0230F2D3720F40196A11DB5
:1008C000B11D05C026E8230F0296A11DB11D20937E
:1008D000BE028093BF029093C002A093C102B09366
:1008E000C2028091C3029091C402A091C502B0914E
:1008F000C6020196A11DB11D8093C3029093C4024C
:10090000A093C502B093C602BF91AF919F918F9102
:100910003F912F910F900FBE0F901F9018951F922F
:100920000F920FB60F9211240BB60F922F933F9395
:100930004F935F936F937F938F939F93AF93BF93E7
:10094000EF93FF938EE192E01FDEFF91EF91BF9155
:10095000AF919F918F917F916F915F914F913F9157
:100960002F910F900BBE0F900FBE0F901F901895F8
:100970001F920F920FB60F9211240BB60F922F9366
:100980008F939F93EF93FF93E0912E02F0912F02AC
:100990008081E0913402F091350282FD12C0908195
:1009A000809137028F5F8F7320913802821751F048
:1009B000E0913702F0E0E25EFD4F958F80933702C1
:1009C00001C08081FF91EF919F918F912F910F90A6
:1009D0000BBE0F900FBE0F901F901895CF93DF9313
:1009E000CDB7DEB768970FB6F894DEBF0FBECDBFA8
:1009F000789484B5826084BD84B5816084BD85B5FA
:100A0000826085BD85B5816085BD80916E00816005
:100A100080936E00109281008091810082608093AB
:100A200081008091810081608093810080918000AD
:100A30008160809380008091B10084608093B100D8
:100A40008091B00081608093B000809191008260BD
:100A500080939100809191008160809391008091BA
:100A600090008160809390008091A10082608093CB
:100A7000A1008091A10081608093A1008091A000DD
:100A800081608093A0008091210182608093210188
:100A900080912101816080932101809120018160FA
:100AA0008093200180917A00846080937A00809105
:100AB0007A00826080937A0080917A0081608093CE
:100AC0007A0080917A00806880937A001092C10049
:100AD00062E08EE084DC62E08FE081DC62E080E155
:100AE0007EDC61E08BE07BDC61E08CE078DC61E067
:100AF0008DE075DCE0912E02F0912F0282E0808380
:100B0000E0912A02F0912B021082E0912C02F091E8
:100B10002D028FEC808310923602E0913202F09128
:100B2000330286E08083E0913002F09131028081CF
:100B300080618083E0913002F09131028081886091
:100B40008083E0913002F09131028081806880835F
:100B5000E0913002F091310280818F7D80838EE0C0
:100B6000E8DB7C018FE0E5DB8C0180E1E2DB9C01CE
:100B700091E0EF2809F090E09093BD0291E0012B05
:100B800009F090E09093BC0261E0232B09F060E053
:100B90006093BB0270E0CE010196F5DD6091BC026E
:100BA00070E0CE010796EFDD6091BD0270E0CE01EE
:100BB0004396E9DD1E861D86188A1F861A8A198AC1
:100BC0000B891C890115110591F0EF88F88CB7018C
:100BD000CE010D96B2DD811104C0CE010D969BDDD4
:100BE00006C0FA8AE98AB8018D859E85DCD2CE01DD
:100BF0000D963BDE8C014B855C856F81788509DE27
:100C0000811102C0C80187DDC8012FDE8C014D8132
:100C10005E8169817A81FDDD811102C0C8017BDDC1
:100C2000F80144815581608171818EE192E038DC68
:100C300042E050E06AE172E08EE192E031DC8D85C5
:100C40009E853BD18B899C8938D18F81988535D100
:100C500089819A8132D16091BD028BE092DB6091F3
:100C6000BC028CE08EDB6091BB028DE08ADBF3DBA3
:100C70004B015C018AEFC82ED12CE12CF12CEBDB6F
:100C8000DC01CB0188199909AA09BB09883E934068
:100C9000A105B105A0F3F1E0CF1AD108E108F108F0
:100CA00028EE820E23E0921EA11CB11CC114D104B7
:100CB000E104F10421F7F7DC52CFEEE1F2E0138218
:100CC000128288EE93E0A0E0B0E084839583A6834F
:100CD000B7838AE092E09183808385EC90E09587EA
:100CE000848784EC90E09787868780EC90E0918BF6
:100CF000808B81EC90E0938B828B82EC90E0958BE3
:100D0000848B86EC90E0978B868B118E128E138EDF
:100D1000148E0895BB274A3031F4992322F4BDE2A2
:100D2000909581959F4F01C0BB27FB015527AA27AE
:100D3000880F991FAA1FA41710F0A41B8395505168
:100D4000B9F7A05DAA3308F0A95DA193009779F7E0
:100D5000B111B1931192CB0100C0DC01FC01672FEE
:100D600071917723E1F7329704C07C916D93708382
:100D70006291AE17BF07C8F30895EE0FFF1F881FDB
:100D80008BBF0790F691E02D19940F931F93CF938B
:100D9000DF938230910510F482E090E0E091C90287
:100DA000F091CA0220E030E0A0E0B0E0309719F105
:100DB000408151810281138148175907C8F0841777
:100DC000950769F4109731F012960C9312971396C9
:100DD0001C9327C00093C9021093CA0222C0211598
:100DE000310519F04217530718F49A01BD01EF01BC
:100DF000DF01F801DBCF21153105F9F0281B390B94
:100E00002430310580F48A819B816115710521F0C0
:100E1000FB019383828304C09093CA028093C9022A
:100E2000FE01329644C0FE01E20FF31F81939193BD
:100E300022503109398328833AC02091C70230916A
:100E4000C802232B41F42091020230910302309317
:100E5000C8022093C702209100023091010221159F
:100E6000310541F42DB73EB740910402509105027F
:100E7000241B350BE091C702F091C802E217F3077B
:100E8000A0F42E1B3F0B2817390778F0AC014E5FFA
:100E90005F4F2417350748F04E0F5F1F5093C8026D
:100EA0004093C7028193919302C0E0E0F0E0CF014C
:100EB000DF91CF911F910F910895CF93DF9300970A
:100EC00009F481C0FC01329713821282A091C902F9
:100ED000B091CA02109781F420813181820F931F53
:100EE0002091C7023091C8022817390751F5F093B5
:100EF000C802E093C70267C0ED0120E030E0CE17E2
:100F0000DF0740F44A815B819E0141155105F1F0F4
:100F1000EA01F5CFD383C28340815181840F951FAD
:100F2000C817D90759F488819981840F951F0296B3
:100F3000918380838A819B819383828321153105EC
:100F400029F4F093CA02E093C9023DC0E901FB8392
:100F5000EA8349915991C40FD51FEC17FD0761F43D
:100F600080819181840F951F0296E901998388837E
:100F7000828193819B838A83E0E0F0E012968D91D9
:100F80009C911397009719F0FD01DC01F7CF8D912B
:100F90009C9111979D012E5F3F4F820F931F2091CF
:100FA000C7023091C8022817390769F4309729F42D
:100FB0001092CA021092C90202C013821282B09328
:100FC000C802A093C702DF91CF9108956F927F92DC
:100FD0008F929F92AF92BF92CF92DF92EF92FF9249
:100FE0000F931F93CF93DF93009781F4CB01DF9191
:100FF000CF911F910F91FF90EF90DF90CF90BF9016
:10100000AF909F908F907F906F90BFCEFC01E60FC6
:10101000F71F9C0122503109E217F30708F4A5C01D
:10102000EC01D9010D911C91119706171707A8F033
:101030000530110508F497C0C80104978617970773
:1010400008F491C002501109061B170B019311936C
:101050006D937C93CF0131DF86C05B01A01AB10A8A
:101060004C01800E911EA091C902B091CA02612C60
:10107000712CE12CF12C109709F446C08D919C91B4
:101080001197A815B905B1F56C0142E0C40ED11C49
:10109000CA14DB0478F14C018A189B08640142E011
:1010A000C40ED11C1296BC9012971396AC91B5E069
:1010B000CB16D10440F0B282A38391828082D90101
:1010C0006D937C9309C00E5F1F4F800F911FF90134
:1010D00091838083EB2DFA2FE114F10431F0D701D5
:1010E0001396FC93EE9312973EC0F093CA02E093DE
:1010F000C90239C06816790608F43C017D011296D0
:101100000D90BC91A02DB7CF8091C7029091C802DD
:1011100088169906E1F466167706C8F480910002F5
:1011200090910102009741F48DB79EB7409104025F
:1011300050910502841B950BE817F907B0F4F09362
:10114000C802E093C702F901718360830CC0CB0130
:101150001CDE7C01009749F0A801BE011BD0CE0126
:10116000ACDEC70104C0CE0102C080E090E0DF9198
:10117000CF911F910F91FF90EF90DF90CF90BF9094
:10118000AF909F908F907F906F90089581E090E056
:10119000F89410C0FB01DC0102C001900D92415097
:1011A0005040D8F70895FB01DC0101900D9200201A
:0811B000E1F70895F894FFCF68
:1011B8000000CB02800000000000E60250027E0220
:0E11C8003203AF028D02A10220000D0A0000CA
:00000001FF
