:1000000007C1000033C1000031C100002FC1000052
:100010002DC100002BC1000029C1000027C1000034
:1000200025C1000023C1000021C100001FC1000044
:100030001DC100001BC1000019C1000017C1000054
:1000400015C10000A1C5000011C100000FC10000D2
:100050000DC100000BC1000009C1000065C4000013
:1000600005C10000D4C40000A9C40000FFC0000006
:10007000FDC00000FBC00000F9C00000F7C0000098
:1000800056C50000F3C00000F1C00000EFC0000042
:10009000EDC00000EBC00000E9C00000E7C00000B8
:1000A000E5C00000E3C0000015C50000DFC000008F
:1000B000DDC00000DBC00000D9C00000DEC40000CD
:1000C000D5C00000D3C00000D1C00000CFC00000E8
:1000D000CDC00000CBC00000C9C00000C7C00000F8
:1000E000C5C00000E701EA01D901DD01E1012102FB
:1000F000EE01F201F801FC01000206020A020E0202
:100100002102140218021C02000021002400270012
:100110002A002D0030003300010100000401070116
:100120000A0100002200250028002B002E003100CB
:10013000340002010000050108010B010505050559
:10014000070508080808020202020A0A080804044F
:10015000040401010101010101010303030303037D
:100160000303040707070C0C0C0C0C0C0C0C02020C
:10017000020206060606060606060B0B0B0B0B0B09
:100180000B0B010210202008081020401020408096
:10019000020102010804020101020408102040804B
:1001A00080402010080402018004020180402010D9
:1001B0000804020108040201010204081020408022
:1001C000010204081020408000000A0B02090C0DF7
:1001D0000E080703040100000000000000000000FA
:1001E000000000000000000000000000000000000F
:1001F00000000000121110000000000000000000CC
:100200000000000000000000000000000000F105F8
:1002100011241FBECFEFD1E2DEBFCDBF00E00CBF87
:1002200012E0A0E0B2E0E4E8F0E100E00BBF02C0C1
:1002300007900D92A231B107D9F723E0A2E1B2E015
:1002400001C01D92A235B207E1F711E0C8E0D1E08C
:1002500000E005C021970109802FFE0105D7C730B6
:10026000D10780E00807B1F71AD50AC7C9CECF92E7
:10027000DF92EF92FF92DC01A03282E0B8070CF02F
:100280003CC0B7FD06C0A53BB1052CF0A4EBB0E027
:1002900002C0A0E0B0E08091500328E830E069019E
:1002A000C81AD10887FDD394CC0CDD1CCC0CDD1C06
:1002B0000D2C000CEE08FF088091510328E532E078
:1002C000281B310987FD3395220F331F220F331F5F
:1002D000A901330F660B770B9A01AB012C193D096D
:1002E0004E095F097ED624EB30E040E050E053D663
:1002F000C20ED31EE41EF51ED60190914F0390331B
:1003000098F58091500348E850E0481B510987FD5B
:100310005395440F551F440F551FA417B5078CF074
:100320008091510328E532E0281B310987FD339580
:10033000220F331F220F331FAD012A173B070CF486
:10034000A90142505109440F551F2FB7F894892F26
:1003500090E0FC01EE0FFF1F8E0F9F1FFC01E25487
:10036000FD4F528341832FBFFF90EF90DF90CF90DE
:100370000895362F90E0FC01E853FE4F4491FC01B4
:10038000EE57FE4F2491FC01E45CFE4F94919923BB
:1003900009F46BC0442309F454C050E0FA013197CA
:1003A000E231F10508F04DC08827EE58FF4F8F4F1E
:1003B0005BC6809180008F7707C0809180008F7D21
:1003C00003C080918000877F809380003AC084B50D
:1003D0008F7702C084B58F7D84BD33C08091B0001B
:1003E0008F7703C08091B0008F7D8093B00029C0CB
:1003F000809190008F7707C0809190008F7D03C01F
:1004000080919000877F809390001BC08091A00016
:100410008F7707C08091A0008F7D03C08091A000DE
:10042000877F8093A0000DC0809120018F7707C047
:10043000809120018F7D03C080912001877F809370
:100440002001E92FF0E0EE0FFF1FEE5DFE4FA591BA
:10045000B4919FB7F894311104C08C912095282352
:1004600002C0EC912E2B2C939FBF08953FB7F894B8
:1004700080911D0290911E02A0911F02B091200256
:1004800026B5A89B05C02F3F19F00196A11DB11DEF
:100490003FBFBA2FA92F982F8827820F911DA11D2A
:1004A000B11DBC01CD0142E0660F771F881F991F67
:1004B0004A95D1F708958F929F92AF92BF92CF92B3
:1004C000DF92EF92FF926B017C01D0DF4B015C0168
:1004D000C114D104E104F104E9F0C8DFDC01CB016F
:1004E00088199909AA09BB09883E9340A105B1055D
:1004F00078F321E0C21AD108E108F10888EE880EED
:1005000083E0981EA11CB11CC114D104E104F104C4
:1005100021F7DECFFF90EF90DF90CF90BF90AF90AC
:100520009F908F900895CF92DF92EF92FF920F935A
:100530001F93CF93DF936C017A018B01C0E0D0E071
:10054000CE15DF0581F0D8016D918D01D601ED91B9
:10055000FC910190F081E02DC6011995892B11F0D5
:100560002196EECF7E01C701DF91CF911F910F91B0
:10057000FF90EF90DF90CF900895089580E090E095
:100580000895FC01538D448D252F30E0842F90E099
:10059000821B930B541710F0CF960895019708957E
:1005A000FC01918D828D981761F0828DDF01A80F7B
:1005B000B11D5D968C91928D9F5F9F73928F90E09D
:1005C00008958FEF9FEF0895FC01918D828D98170C
:1005D00031F0828DE80FF11D858D90E008958FEF49
:1005E0009FEF0895FC01918D228D892F90E0805C12
:1005F0009F4F821B91098F739927089581E292E0A2
:10060000F1DF21E0892B09F420E0822F0895FC011D
:10061000848DDF01A80FB11DA35ABF4F2C91848D8B
:1006200090E001968F739927848FA689B7892C93C0
:10063000A089B1898C91837080648C93938D848D13
:10064000981306C00288F389E02D80818F7D808316
:100650000895EF92FF920F931F93CF93DF93EC01D6
:1006600081E0888F9B8D8C8D981305C0E889F9896E
:10067000808185FD25C0F62E0B8D10E00F5F1F4F8A
:100680000F731127E02E8C8DE8120BC00FB607FCFC
:10069000FACFE889F989808185FFF5CFCE01B7DFF0
:1006A000F2CF8B8DFE01E80FF11DE35AFF4FF08270
:1006B0009FB7F8940B8FEA89FB89808180620AC01A
:1006C0009FB7F894EE89FF896083E889F989808172
:1006D0008370806480839FBF81E090E0DF91CF9141
:1006E0001F910F91FF90EF900895CF93DF93EC014E
:1006F000888D8823C1F0EA89FB89808185FD05C04A
:10070000A889B9898C9186FD0EC00FB607FCF5CF7C
:10071000808185FFF2CFA889B9898C9185FFEDCFC3
:10072000CE0175DFE8CFDF91CF91089580E090E0B2
:10073000892B19F063DF811125C080E090E0892BBF
:1007400041F080E090E0892B21F00E9400008111AF
:100750001CC080E090E0892B41F080E090E0892B84
:1007600021F00E940000811113C080E090E0892BED
:10077000A1F080E090E0892B81F00E9400008111BF
:100780000AC008950E940000D8CF0E940000E1CF67
:100790000E940000EACF0C9400000895CF92DF92EF
:1007A000EF92FF920F931F93CF93DF936C018B0116
:1007B0007A01EC01CE5EDD4F888187FF04C0FB012A
:1007C0001182108224C02CE02C9DC0012D9D900D23
:1007D00011242881AC01420F511D27FD5A9520910B
:1007E0004E0330E04217530794F42881AC01420FC6
:1007F000511D27FD5A959A01FA01EE0FFF1F2E0F8A
:100800003F1FF901E254FD4F208126FD19C0888168
:100810008F5F88832CE02C9DC0012D9D900D1124AD
:100820002881AC01420F511D27FD5A9520914E039E
:1008300030E042175307B4F428812C303CF112C049
:100840002881820F911D27FD9A95FC01EE0FFF1F55
:100850008E0F9F1FFC01E254FD4F808160E08F737B
:1008600088DDD5CFF80180819181049680349C4940
:1008700018F480E49CE904C0F80180819181049619
:10088000F701918380838FEF888344C0F801408112
:1008900051812881BC01620F711D27FD7A959B0152
:1008A000FB01EE0FFF1F2E0F3F1FF901E254FD4F1A
:1008B00021813281240F351FF70131832083288164
:1008C000AC01420F511D27FD5A959A01FA01EE0F16
:1008D000FF1F2E0F3F1FF901E254FD4F208126FF1D
:1008E00019C02881820F911D27FD9A95FC01EE0FFA
:1008F000FF1F8E0F9F1FFC01E254FD4F808161E0BE
:100900008F73DF91CF911F910F91FF90EF90DF9048
:10091000CF902FCDDF91CF911F910F91FF90EF904E
:10092000DF90CF900895A8D31F920F920FB60F9229
:1009300011242F933F938F939F93AF93BF938091F5
:10094000190290911A02A0911B02B0911C023091E1
:10095000180223E0230F2D3720F40196A11DB11DAD
:1009600005C026E8230F0296A11DB11D2093180291
:100970008093190290931A02A0931B02B0931C0259
:1009800080911D0290911E02A0911F02B091200241
:100990000196A11DB11D80931D0290931E02A0938C
:1009A0001F02B0932002BF91AF919F918F913F9111
:1009B0002F910F900FBE0F901F9018951F920F92BE
:1009C0000FB60F9211240BB60F922F933F934F93B4
:1009D0005F936F937F938F939F93AF93BF93EF93A7
:1009E000FF9381E292E013DEFF91EF91BF91AF910F
:1009F0009F918F917F916F915F914F913F912F9137
:100A00000F900BBE0F900FBE0F901F9018951F9266
:100A10000F920FB60F9211240BB60F922F938F9354
:100A20009F93EF93FF93E0913102F0913202808126
:100A3000E0913702F091380282FD12C090818091DE
:100A40003A028F5F8F7320913B02821751F0E09141
:100A50003A02F0E0EF5DFD4F958F80933A0201C0BE
:100A60008081FF91EF919F918F912F910F900BBEFD
:100A70000F900FBE0F901F9018951F920F920FB6F8
:100A80000F9211240BB60F922F933F934F935F93C6
:100A90006F937F938F939F93AF93BF93EF93FF9346
:100AA00048E251E064E271E080E090E077DEFF919F
:100AB000EF91BF91AF919F918F917F916F915F91D6
:100AC0004F913F912F910F900BBE0F900FBE0F9043
:100AD0001F9018951F920F920FB60F9211240BB60C
:100AE0000F922F933F934F935F936F937F938F93C7
:100AF0009F93AF93BF93EF93FF9348EA50E064EA6C
:100B000070E083E090E04ADEFF91EF91BF91AF91FA
:100B10009F918F917F916F915F914F913F912F9115
:100B20000F900BBE0F900FBE0F901F9018951F9245
:100B30000F920FB60F9211240BB60F922F933F9383
:100B40004F935F936F937F938F939F93AF93BF93D5
:100B5000EF93FF9348E950E064E970E082E090E0B1
:100B60001DDEFF91EF91BF91AF919F918F917F918A
:100B70006F915F914F913F912F910F900BBE0F900E
:100B80000FBE0F901F9018951F920F920FB60F92E5
:100B900011240BB60F922F933F934F935F936F9354
:100BA0007F938F939F93AF93BF93EF93FF9348E807
:100BB00050E064E870E081E090E0F0DDFF91EF91BB
:100BC000BF91AF919F918F917F916F915F914F9165
:100BD0003F912F910F900BBE0F900FBE0F901F9063
:100BE0001895109224021092230288EE93E0A0E060
:100BF000B0E08093250290932602A0932702B09341
:100C0000280284E092E0909322028093210285ECF6
:100C100090E090932E0280932D0284EC90E09093CC
:100C2000300280932F0280EC90E090933202809308
:100C3000310281EC90E0909334028093330282EC95
:100C400090E0909336028093350286EC90E090938A
:100C500038028093370210923A0210923B021092AF
:100C60003C0210923D0280914E038033A0F491E04B
:100C7000980F90934E0380934F0390E0FC01EE0F8A
:100C8000FF1F8E0F9F1FFC01E254FD4F88EB9BE07E
:100C90009283818308958FEF80934F030895789412
:100CA00084B5826084BD84B5816084BD85B5826071
:100CB00085BD85B5816085BD80916E008160809322
:100CC0006E0010928100809181008260809381008B
:100CD000809181008160809381008091800081609B
:100CE000809380008091B10084608093B1008091F6
:100CF000B00081608093B000809191008260809309
:100D0000910080919100816080939100809190008A
:100D10008160809390008091A10082608093A10007
:100D20008091A10081608093A1008091A0008160EA
:100D30008093A000809121018260809321018091A5
:100D40002101816080932101809120018160809345
:100D5000200180917A00846080937A0080917A00EB
:100D6000826080937A0080917A00816080937A001B
:100D700080917A00806880937A001092C1008091FF
:100D80004F03803308F068C0EEE8F1E02491E8E416
:100D9000F1E08491882399F090E0880F991FFC017D
:100DA000E85FFE4FA591B491FC01EE5DFE4F859189
:100DB00094918FB7F894EC91E22BEC938FBF8091D4
:100DC0004F03E82FF0E09F01220F331FE20FF31FC4
:100DD000E254FD4F9081907C9C6090831092500370
:100DE000109251036CE034D19CE0899FB001112432
:100DF00040E050E09B01240F351FF901EE0FFF1F6B
:100E00002E0F3F1FF901E254FD4F908196FD17C050
:100E10004F5F5F4F4C30510569F7813009F08FC04B
:100E20001092800082E080938100109285001092E1
:100E30008400B19A80916F00826080936F00E0918E
:100E40004F03F0E0CF01880F991FE80FF91FE2541C
:100E5000FD4F808180648083E0913102F091320205
:100E600082E08083E0912D02F0912E021082E091C9
:100E70002F02F09130028FEC808310923902E091C2
:100E80003502F091360286E08083E0913302F091E2
:100E90003402808180618083E0913302F0913402DA
:100EA000808188608083E0913302F09134028081F8
:100EB00080688083E0913302F091340280818F7DDD
:100EC000808304EB10E01092170210921602C0917A
:100ED0001602D0911702C43BD1056CF4CE01C7D9DC
:100EE00064E170E080E090E0E6DA2196D0931702AA
:100EF000C0931602ECCF64E670E080E090E0DBDAAD
:100F00001093170200931602C0911602D091170297
:100F10001C161D066CF4CE01AAD964E170E080E0D5
:100F200090E0C9DA2197D0931702C0931602ECCF54
:100F300064EF71E080E090E0BEDAF8DBC4CF82308D
:100F400061F410929000809391001092950010929D
:100F5000940088BB8093710072CF833069F4109243
:100F6000A00082E08093A1001092A5001092A4003E
:100F700089BB8093720063CF811161CF10922001F1
:100F800082E08093210110922501109224018ABBF6
:100F90008093730054CF052E97FB16F400940FD066
:100FA00057FD05D024D007FC02D046F408C0509568
:100FB0004095309521953F4F4F4F5F4F0895909545
:100FC0008095709561957F4F8F4F9F4F089531D0D9
:100FD000A59F900DB49F900DA49F800D911D11248D
:100FE0000895B7FFF4CFF3DF821B930B0895A1E2BE
:100FF0001A2EAA1BBB1BFD010DC0AA1FBB1FEE1F93
:10100000FF1FA217B307E407F50720F0A21BB30BDD
:10101000E40BF50B661F771F881F991F1A9469F759
:1010200060957095809590959B01AC01BD01CF01B5
:101030000895A29FB001B39FC001A39F700D811DB1
:101040001124911DB29F700D811D1124911D0895D1
:10105000991B79E004C0991F961708F0961B881F0A
:101060007A95C9F780950895EE0FFF1F881F8BBFF3
:101070000790F691E02D199481E090E0F89400C07B
:04108000F894FFCF12
:101084000000000029039302C1027503F202D0029A
:02109400E40274
:00000001FF
