:1000000018C1000028C1000026C1000024C1000062
:1000100022C1000020C100001EC100001CC1000060
:100020001AC1000018C1000016C1000014C1000070
:1000300012C1000010C100000EC100000CC1000080
:100040000AC1000008C1000006C1000004C1000090
:1000500002C1000000C10000FEC00000ACC20000F0
:10006000FAC00000F8C00000F6C00000F4C00000B4
:10007000F2C00000F0C00000EEC00000ECC00000C4
:10008000EAC00000E8C00000E6C00000E4C00000D4
:10009000E2C00000E0C00000DEC00000DCC00000E4
:1000A000DAC00000D8C00000D6C00000D4C00000F4
:1000B000D2C00000D0C00000CEC00000CCC0000004
:1000C000CAC00000C8C00000C6C00000C4C0000014
:1000D000C2C00000C0C00000BEC00000BCC0000024
:1000E000BAC000005A015D014C0150015401940155
:1000F000610165016B016F01730179017D0181016E
:10010000940187018B018F01E501EA01EF01F901FB
:1001100003027C020D0215021D02270231023B027E
:100120004A0254027C025E02680272020000210050
:10013000240027002A002D003000330001010000B8
:10014000040107010A0100002200250028002B00FD
:100150002E003100340002010000050108010B01EE
:1001600005050505070508080808020202020A0A33
:100170000808040404040101010101010101030351
:10018000030303030303040707070C0C0C0C0C0CFC
:100190000C0C0202020206060606060606060B0BF9
:1001A0000B0B0B0B0B0B010210202008081020403A
:1001B000102040800201020108040201010204082B
:1001C00010204080804020100804020180040201B9
:1001D0008040201008040201080402010102040802
:1001E00010204080010204081020408000000A0B0B
:1001F00002090C0D0E0807030401000000000000B6
:1002000000000000000000000000000000000000EE
:1002100000000000000000001211100000000000AB
:1002200000000000000000000000000000000000CE
:10023000000011241FBECFEFD1E2DEBFCDBF00E032
:100240000CBF22E0A0E0B2E001C01D92AB30B207CB
:10025000E1F7FBD1A8C2D4CE362F90E0FC01E451E7
:10026000FE4F4491FC01EA55FE4F2491FC01E05AF7
:10027000FE4F9491992309F46BC0442309F454C0B0
:1002800050E0FA013197E231F10508F04DC08827BE
:10029000EE58FF4F8F4F7FC2809180008F7707C04D
:1002A000809180008F7D03C080918000877F809344
:1002B00080003AC084B58F7702C084B58F7D84BD3D
:1002C00033C08091B0008F7703C08091B0008F7DE4
:1002D0008093B00029C0809190008F7707C08091F3
:1002E00090008F7D03C080919000877F8093900065
:1002F0001BC08091A0008F7707C08091A0008F7DE8
:1003000003C08091A000877F8093A0000DC08091E2
:1003100020018F7707C0809120018F7D03C08091DD
:100320002001877F80932001E92FF0E0EE0FFF1F6F
:10033000EA5BFE4FA591B4919FB7F894311104C0C8
:100340008C912095282302C0EC912E2B2C939FBFDB
:100350000895482F282F30E0F901EA55FE4F5491B7
:10036000F901E05AFE4F8491882399F090E0880FBC
:10037000991FFC01E45DFE4FA591B4918A5B9E4FED
:10038000FC01859194918FB7F894EC91E52BEC9357
:100390008FBF6115710511F460E004C06F3F7105F6
:1003A00019F461E0842F58CFF901E451FE4FE49134
:1003B0008E2F90E0FC013197E231F10508F09CC0EE
:1003C0008827EC57FF4F8F4FE6C184B5806884BD06
:1003D00067BD089584B5806284BD68BD089580912D
:1003E000800080688093800070938900609388000B
:1003F00008958091800080628093800070938B00CC
:1004000060938A00089580918000886080938000C6
:1004100070938D0060938C0008958091B000806887
:100420008093B0006093B30008958091B000806223
:100430008093B0006093B40008958091900080682C
:100440008093900070939900609398000895809134
:10045000900080628093900070939B0060939A005C
:1004600008958091900088608093900070939D0023
:1004700060939C0008958091A00080688093A00004
:100480008091A0008F7B8093A0007093A90060935F
:10049000A80008958091A00080628093A0007093CE
:1004A000AB006093AA0008958091A00088608093BB
:1004B000A0007093AD006093AC000895809120017E
:1004C000806880932001709329016093280108952A
:1004D0008091200180628093200170932B016093B2
:1004E0002A010895809120018860809320017093F3
:1004F0002D0160932C010895603871050CF051CFE7
:100500004BCF3FB7F8948091070290910802A091D9
:100510000902B0910A0226B5A89B05C02F3F19F029
:100520000196A11DB11D3FBFBA2FA92F982F882773
:10053000820F911DA11DB11DBC01CD0142E0660FCE
:10054000771F881F991F4A95D1F708958F929F9220
:10055000AF92BF92CF92DF92EF92FF92D2DF4B0128
:100560005C018AE0C82ED12CE12CF12CCADFDC0121
:10057000CB0188199909AA09BB09883E9340A105B6
:10058000B105A0F321E0C21AD108E108F10888EE14
:10059000880E83E0981EA11CB11CC114D104E10493
:1005A000F10421F7FF90EF90DF90CF90BF90AF90D4
:1005B0009F908F9008951F920F920FB60F92112463
:1005C0002F933F938F939F93AF93BF938091030299
:1005D00090910402A0910502B091060230910202AE
:1005E00023E0230F2D3720F40196A11DB11D05C076
:1005F00026E8230F0296A11DB11D209302028093CD
:10060000030290930402A0930502B0930602809126
:10061000070290910802A0910902B0910A02019686
:10062000A11DB11D8093070290930802A0930902B7
:10063000B0930A02BF91AF919F918F913F912F91FB
:100640000F900FBE0F901F901895789484B582601C
:1006500084BD84B5816084BD85B5826085BD85B566
:10066000816085BD80916E00816080936E001092E4
:10067000810080918100826080938100809181005F
:1006800081608093810080918000816080938000F0
:100690008091B10084608093B1008091B00081604E
:1006A0008093B0008091910082608093910080914E
:1006B000910081608093910080919000816080938F
:1006C00090008091A10082608093A1008091A100A0
:1006D00081608093A1008091A00081608093A00040
:1006E00080912101826080932101809121018160AC
:1006F000809321018091200181608093200180916D
:100700007A00846080937A0080917A00826080937E
:100710007A0080917A00816080937A0080917A00DB
:10072000806880937A001092C10000E010E08EEFA4
:10073000E82EF12C1092010210920002C0910002EA
:10074000D0910102CF3FD10509F054F4BE018AE0F7
:1007500000DEFCDE2196D0930102C0930002EECFB2
:10076000F0920102E0920002C0910002D0910102D9
:100770001C161D0654F4BE018AE0EBDDE7DE21976E
:10078000D0930102C0930002EFCF0115110591F241
:100790000E940000CFCFEE0FFF1F881F8BBF079076
:0A07A000F691E02D1994F894FFCFB4
:00000001FF
