:1000000019C1000045C1000043C1000041C100000A
:100010003FC100003DC100003BC1000039C10000EC
:1000200037C1000035C1000033C1000031C10000FC
:100030002FC100002DC100002BC1000029C100000C
:1000400027C1000025C1000023C1000021C100001C
:100050001FC100001DC100001BC10000E4C2000060
:1000600017C1000053C3000028C3000011C10000E5
:100070000FC100000DC100000BC1000009C100004C
:1000800007C1000005C1000003C1000001C100005C
:10009000FFC00000FDC00000FBC00000F9C0000070
:1000A000F7C00000F5C00000F3C00000F1C0000080
:1000B000EFC00000EDC00000EBC00000E9C0000090
:1000C000E7C00000E5C00000E3C00000E1C00000A0
:1000D000DFC00000DDC00000DBC00000D9C00000B0
:1000E000D7C0000077017A0169016D017101B1018A
:1000F0007E01820188018C01900196019A019E0186
:10010000B101A401A801AC01D104D604DB04E504CB
:10011000EF046805F9040105090513051D05270508
:100120003605400568054A0554055E0500002100B6
:10013000240027002A002D003000330001010000B8
:10014000040107010A0100002200250028002B00FD
:100150002E003100340002010000050108010B01EE
:1001600005050505070508080808020202020A0A33
:100170000808040404040101010101010101030351
:10018000030303030303040707070C0C0C0C0C0CFC
:100190000C0C0202020206060606060606060B0BF9
:1001A0000B0B0B0B0B0B010210202008081020403A
:1001B000102040800201020108040201010204082B
:1001C00010204080804020100804020180040201B9
:1001D0008040201008040201080402010102040802
:1001E00010204080010204081020408000000A0B0B
:1001F00002090C0D0E0807030401000000000000B6
:1002000000000000000000000000000000000000EE
:1002100000000000000000001211100000000000AB
:1002200000000000000000000000000000000000CE
:100230000000B40511241FBECFEFD1E2DEBFCDBF59
:1002400000E00CBF12E0A0E0B2E0E4E8FCE000E077
:100250000BBF02C007900D92A631B107D9F722E07B
:10026000A6E1B2E001C01D92AE3BB207E1F711E09A
:10027000CAE1D1E000E005C021970109802FFE010D
:10028000EDD4C931D10780E00807B1F775D2F8C4C1
:10029000B7CE362F90E0FC01E451FE4F4491FC01B3
:1002A000EA55FE4F2491FC01E05AFE4F94919923A8
:1002B00009F46BC0442309F454C050E0FA013197AB
:1002C000E231F10508F04DC08827EE58FF4F8F4FFF
:1002D000C5C4809180008F7707C0809180008F7D9A
:1002E00003C080918000877F809380003AC084B5EE
:1002F0008F7702C084B58F7D84BD33C08091B000FC
:100300008F7703C08091B0008F7D8093B00029C0AB
:10031000809190008F7707C0809190008F7D03C0FF
:1003200080919000877F809390001BC08091A000F7
:100330008F7707C08091A0008F7D03C08091A000BF
:10034000877F8093A0000DC0809120018F7707C028
:10035000809120018F7D03C080912001877F809351
:100360002001E92FF0E0EE0FFF1FEA5BFE4FA591A1
:10037000B4919FB7F894311104C08C912095282333
:1003800002C0EC912E2B2C939FBF0895CF92DF9249
:10039000EF92FF920F931F93CF93DF936C017A013B
:1003A0008B01C0E0D0E0CE15DF0581F0D8016D9162
:1003B0008D01D601ED91FC910190F081E02DC601F7
:1003C0001995892B11F02196EECF7E01C701DF919F
:1003D000CF911F910F91FF90EF90DF90CF900895F4
:1003E000089580E090E00895FC01538D448D252F01
:1003F00030E0842F90E0821B930B541710F0CF96BF
:10040000089501970895FC01918D828D981761F0F0
:10041000828DDF01A80FB11D5D968C91928D9F5F3B
:100420009F73928F90E008958FEF9FEF0895FC01E6
:10043000918D828D981731F0828DE80FF11D858D99
:1004400090E008958FEF9FEF0895FC01918D228D2C
:10045000892F90E0805C9F4F821B91098F739927B1
:10046000089581E292E0F1DF21E0892B09F420E098
:10047000822F0895FC01848DDF01A80FB11DA35ABE
:10048000BF4F2C91848D90E001968F739927848FB4
:10049000A689B7892C93A089B1898C9183708064D7
:1004A0008C93938D848D981306C00288F389E02D78
:1004B00080818F7D80830895EF92FF920F931F9329
:1004C000CF93DF93EC0181E0888F9B8D8C8D981307
:1004D00005C0E889F989808185FD25C0F62E0B8D40
:1004E00010E00F5F1F4F0F731127E02E8C8DE81265
:1004F0000BC00FB607FCFACFE889F989808185FF28
:10050000F5CFCE01B7DFF2CF8B8DFE01E80FF11DE5
:10051000E35AFF4FF0829FB7F8940B8FEA89FB896B
:10052000808180620AC09FB7F894EE89FF8960835A
:10053000E889F98980818370806480839FBF81E02E
:1005400090E0DF91CF911F910F91FF90EF90089570
:10055000CF93DF93EC01888D8823C1F0EA89FB8972
:10056000808185FD05C0A889B9898C9186FD0EC062
:100570000FB607FCF5CF808185FFF2CFA889B98936
:100580008C9185FFEDCFCE0175DFE8CFDF91CF9164
:10059000089580E090E0892B19F063DF811125C078
:1005A00080E090E0892B41F080E090E0892B21F001
:1005B0000E94000081111CC080E090E0892B41F076
:1005C00080E090E0892B21F00E940000811113C08F
:1005D00080E090E0892BA1F080E090E0892B81F011
:1005E0000E94000081110AC008950E940000D8CF27
:1005F0000E940000E1CF0E940000EACF0C940000AE
:100600000895009761F0FC0101900020E9F731970F
:10061000AF01481B590BBC0181E292E0B7CE80E0EC
:1006200090E0089529D31F920F920FB60F921124D4
:100630002F933F938F939F93AF93BF9380911D020E
:1006400090911E02A0911F02B091200230911C02D5
:1006500023E0230F2D3720F40196A11DB11D05C005
:1006600026E8230F0296A11DB11D20931C02809342
:100670001D0290931E02A0931F02B093200280914E
:10068000180290911902A0911A02B0911B020196D2
:10069000A11DB11D8093180290931902A0931A0214
:1006A000B0931B02BF91AF919F918F913F912F917A
:1006B0000F900FBE0F901F9018951F920F920FB6BC
:1006C0000F9211240BB60F922F933F934F935F938A
:1006D0006F937F938F939F93AF93BF93EF93FF930A
:1006E00081E292E0C7DEFF91EF91BF91AF919F91C0
:1006F0008F917F916F915F914F913F912F910F90CB
:100700000BBE0F900FBE0F901F9018951F920F9267
:100710000FB60F9211240BB60F922F938F939F93C6
:10072000EF93FF93E0913102F09132028081E091EA
:100730003702F091380282FD12C0908180913A0216
:100740008F5F8F7320913B02821751F0E0913A0244
:10075000F0E0EF5DFD4F958F80933A0201C08081FC
:10076000FF91EF919F918F912F910F900BBE0F9062
:100770000FBE0F901F901895CF93DF93CDB7DEB7C4
:10078000A1970FB6F894DEBF0FBECDBF789484B5A5
:10079000826084BD84B5816084BD85B5826085BD7D
:1007A00085B5816085BD80916E00816080936E000B
:1007B00010928100809181008260809381008091FD
:1007C00081008160809381008091800081608093AE
:1007D00080008091B10084608093B1008091B0006E
:1007E00081608093B000809191008260809391003D
:1007F0008091910081608093910080919000816050
:10080000809390008091A10082608093A1008091EC
:10081000A10081608093A1008091A00081608093FD
:10082000A0008091210182608093210180912101AB
:10083000816080932101809120018160809320015B
:1008400080917A00846080937A0080917A0082603F
:1008500080937A0080917A00816080937A00809101
:100860007A00806880937A001092C100E091310292
:10087000F091320282E08083E0912D02F0912E020D
:100880001082E0912F02F09130028FEC8083109261
:100890003902E0913502F091360286E08083E091E2
:1008A0003302F0913402808180618083E0913302D1
:1008B000F0913402808188608083E0913302F0916E
:1008C0003402808180688083E0913302F0913402A9
:1008D00080818F7D808344244A9473E0572E612C5D
:1008E000712CE0EB2E2EE1E03E2EFAE0CF2ED12C43
:1008F000E12CF12C80917B00877F80937B0080E44A
:1009000080937C0080917A00806480937A0080914B
:100910007A0086FDFCCFA091780080917900B0E04C
:10092000B82B2FEF30E0A2D1A30192014AD1A90147
:100930003093170220931602F1011491EAE6F1E0D8
:100940008491882399F090E0880F991FFC01E45D61
:10095000FE4FA591B491FC01EA5BFE4F6591749145
:100960009FB7F8948C91182B1C939FBF411551058C
:1009700011F460E004C04F3F510521F461E08AE0CA
:1009800088DCABC0E6EFF1E0849190E0FC013197A8
:10099000E231F10508F09CC08827EC57FF4F8F4FDC
:1009A0005DC184B5806884BD27BD97C084B5806271
:1009B00084BD28BD92C080918000806880938000B3
:1009C000309389002093880088C0809180008062E5
:1009D0008093800030938B0020938A007EC08091AA
:1009E000800088608093800030938D0020938C007D
:1009F00074C08091B00080688093B0002093B300F1
:100A00006CC08091B00080628093B0002093B400ED
:100A100064C080919000806880939000309399002A
:100A2000209398005AC0809190008062809390003B
:100A300030939B0020939A0050C080919000886072
:100A40008093900030939D0020939C0046C080913D
:100A5000A00080688093A0008091A0008F7B80938D
:100A6000A0003093A9002093A80037C08091A00077
:100A700080628093A0003093AB002093AA002DC029
:100A80008091A00088608093A0003093AD002093F7
:100A9000AC0023C0809120018068809320013093B6
:100AA00029012093280119C0809120018062809340
:100AB000200130932B0120932A010FC08091200147
:100AC00088608093200130932D0120932C0105C074
:100AD000403851050CF052CF4CCF20911602309186
:100AE00017024901330FAA08BB08B7FE1EC06DE20A
:100AF00081E292E0E1DC22273327A9012819390994
:100B00004A095B0919A28E010F5D1F4FCA01B90185
:100B1000A701960172D0605DF80162938F012115E3
:100B200031054105510591F714C0A501940119A2A1
:100B30008E010F5D1F4FCA01B901A70196015DD05B
:100B4000605DF80162938F01211531054105510562
:100B500091F7C80156DD42E050E062E172E081E2C7
:100B600092E014DC16DDC6CEE1E2F2E013821282DE
:100B700088EE93E0A0E0B0E084839583A683B783FA
:100B800084E092E09183808385EC90E09587848770
:100B900084EC90E09787868780EC90E0918B808B47
:100BA00081EC90E0938B828B82EC90E0958B848B30
:100BB00086EC90E0978B868B118E128E138E148E9E
:100BC0000895052E97FB16F400940FD057FD05D01D
:100BD00014D007FC02D046F408C0509540953095DB
:100BE00021953F4F4F4F5F4F089590958095709599
:100BF00061957F4F8F4F9F4F0895A1E21A2EAA1B38
:100C0000BB1BFD010DC0AA1FBB1FEE1FFF1FA217BC
:100C1000B307E407F50720F0A21BB30BE40BF50BB9
:100C2000661F771F881F991F1A9469F76095709542
:100C3000809590959B01AC01BD01CF010895A29FC5
:100C4000B001B39FC001A39F700D811D1124911DA0
:100C5000B29F700D811D1124911D0895EE0FFF1F8D
:100C6000881F8BBF0790F691E02D1994E8DFB7FF3E
:100C70000895821B930B089581E090E0F89400C0E2
:040C8000F894FFCF16
:100C8400000000005C02C601F401A8022502030270
:060C940017020D0A00002A
:00000001FF
