:1000000014C1000040C100003EC100003CC100001E
:100010003AC1000038C1000036C1000034C1000000
:1000200032C1000030C100002EC100002CC1000010
:100030002AC1000028C1000026C1000024C1000020
:1000400022C1000020C100001EC100001CC1000030
:100050001AC1000018C1000016C1000062C20000F1
:1000600012C10000D1C20000A6C200000CC10000F5
:100070000AC1000008C1000006C1000004C1000060
:1000800002C1000000C10000FEC00000FCC0000072
:10009000FAC00000F8C00000F6C00000F4C0000084
:1000A000F2C00000F0C00000EEC00000ECC0000094
:1000B000EAC00000E8C00000E6C00000E4C00000A4
:1000C000E2C00000E0C00000DEC00000DCC00000B4
:1000D000DAC00000D8C00000D6C00000D4C00000C4
:1000E000D2C000003D0440042F04330437047704D9
:1000F000440448044E04520456045C04600464043E
:1001000077046A046E0472040000220025002800AF
:100110002B002E003100340002010000050108010F
:100120000B0100002100240027002A002D003000D0
:10013000330001010000040107010A010000200052
:100140002300260029002C002F00320000010000AF
:10015000030106010901050505050705080808084A
:10016000020202020A0A080804040404010101014F
:10017000010101010303030303030303040707074A
:100180000C0C0C0C0C0C0C0C0202020206060606EF
:10019000060606060B0B0B0B0B0B0B0B01021020BC
:1001A00020080810204010204080020102010804AD
:1001B0000201010204081020408080402010080441
:1001C000020180040201804020100804020108049A
:1001D00002010102040810204080010204081020DE
:1001E000408000000A0B02090C0D0E0807030401F1
:1001F00000000000000000000000000000000000FF
:1002000000000000000000000000000000001211CB
:1002100010000000000000000000000000000000CE
:100220000000000000000000AC0411241FBECFEF4E
:10023000D1E2DEBFCDBF00E00CBF12E0A0E0B2E033
:10024000E2E1FAE000E00BBF02C007900D92A63198
:10025000B107D9F722E0A6E1B2E001C01D92AC3BA4
:10026000B207E1F711E0C5E1D1E000E005C0219758
:100270000109802FFE01BFD3C431D10780E00807F8
:10028000B1F7F8D1C4C3BCCECF92DF92EF92FF9208
:100290000F931F93CF93DF936C017A018B01C0E022
:1002A000D0E0CE15DF0581F0D8016D918D01D6012A
:1002B000ED91FC910190F081E02DC6011995892BFB
:1002C00011F02196EECF7E01C701DF91CF911F91F2
:1002D0000F91FF90EF90DF90CF900895089580E008
:1002E00090E00895FC01538D448D252F30E0842F3C
:1002F00090E0821B930B541710F0CF96089501974E
:100300000895FC01918D828D981761F0828DDF0137
:10031000A80FB11D5D968C91928D9F5F9F73928FF8
:1003200090E008958FEF9FEF0895FC01918D828DED
:10033000981731F0828DE80FF11D858D90E00895BA
:100340008FEF9FEF0895FC01918D228D892F90E012
:10035000805C9F4F821B91098F73992708958FE1CD
:1003600092E0F1DF21E0892B09F420E0822F08954B
:10037000FC01848DDF01A80FB11DA35ABF4F2C9142
:10038000848D90E001968F739927848FA689B78911
:100390002C93A089B1898C91837080648C93938D08
:1003A000848D981306C00288F389E02D80818F7DAB
:1003B00080830895EF92FF920F931F93CF93DF9363
:1003C000EC0181E0888F9B8D8C8D981305C0E889A6
:1003D000F989808185FD25C0F62E0B8D10E00F5F19
:1003E0001F4F0F731127E02E8C8DE8120BC00FB634
:1003F00007FCFACFE889F989808185FFF5CFCE0126
:10040000B7DFF2CF8B8DFE01E80FF11DE35AFF4FEE
:10041000F0829FB7F8940B8FEA89FB898081806214
:100420000AC09FB7F894EE89FF896083E889F9894B
:1004300080818370806480839FBF81E090E0DF9142
:10044000CF911F910F91FF90EF900895CF93DF937D
:10045000EC01888D8823C1F0EA89FB89808185FDC4
:1004600005C0A889B9898C9186FD0EC00FB607FC1E
:10047000F5CF808185FFF2CFA889B9898C9185FF5E
:10048000EDCFCE0175DFE8CFDF91CF91089580E009
:1004900090E0892B19F063DF811125C080E090E0A6
:1004A000892B41F080E090E0892B21F00E94000030
:1004B00081111CC080E090E0892B41F080E090E049
:1004C000892B21F00E940000811113C080E090E090
:1004D000892BA1F080E090E0892B81F00E94000040
:1004E00081110AC008950E940000D8CF0E94000028
:1004F000E1CF0E940000EACF0C940000089500971D
:1005000061F0FC0101900020E9F73197AF01481B31
:10051000590BBC018FE192E0B7CE80E090E00895E6
:1005200072D21F920F920FB60F9211242F933F9306
:100530008F939F93AF93BF9380911B0290911C0266
:10054000A0911D02B0911E0230911A0223E0230FE8
:100550002D3720F40196A11DB11D05C026E8230FFB
:100560000296A11DB11D20931A0280931B02909345
:100570001C02A0931D02B0931E028091160290915E
:100580001702A0911802B09119020196A11DB11D88
:100590008093160290931702A0931802B093190249
:1005A000BF91AF919F918F913F912F910F900FBE6F
:1005B0000F901F9018951F920F920FB60F92112453
:1005C0000BB60F922F933F934F935F936F937F934D
:1005D0008F939F93AF93BF93EF93FF938FE192E03D
:1005E000C7DEFF91EF91BF91AF919F918F917F9166
:1005F0006F915F914F913F912F910F900BBE0F9094
:100600000FBE0F901F9018951F920F920FB60F926A
:1006100011240BB60F922F938F939F93EF93FF9319
:10062000E0912F02F09130028081E0913502F0914B
:10063000360282FD12C09081809138028F5F8F73E5
:1006400020913902821751F0E0913802F0E0E15E2A
:10065000FD4F958F8093380201C08081FF91EF910B
:100660009F918F912F910F900BBE0F900FBE0F9007
:100670001F901895CF93DF93CDB7DEB7A1970FB634
:10068000F894DEBF0FBECDBF789484B5826084BD80
:1006900084B5816084BD85B5826085BD85B5816086
:1006A00085BD80916E00816080936E001092810004
:1006B00080918100826080938100809181008160BF
:1006C0008093810080918000816080938000809180
:1006D000B10084608093B1008091B000816080930C
:1006E000B000809191008260809391008091910090
:1006F0008160809391008091900081608093900050
:100700008091A10082608093A1008091A10081600E
:100710008093A1008091A00081608093A0008091CF
:100720002101826080932101809121018160809369
:1007300021018091200181608093200180917A00C5
:10074000846080937A0080917A00826080937A003E
:1007500080917A00816080937A0080917A0080682D
:1007600080937A001092C1000AEA11E0F8014491E6
:1007700054E6E52E51E0F52EF70184918823C9F067
:1007800090E0880F991FFC01EE5DFE4FA591B4919A
:10079000FC01E85FFE4F259134915FB7F8949C917E
:1007A000842F809598239C93F9018081842B8083EA
:1007B0005FBFE0912F02F091300282E08083E091F0
:1007C0002B02F0912C021082E0912D02F0912E026A
:1007D0008FEC808310923702E0913302F091340263
:1007E00086E08083E0913102F09132028081806165
:1007F0008083E0913102F0913202808188608083B1
:10080000E0913102F0913202808180688083E09132
:100810003102F091320280818F7D808390EFA92E8A
:1008200091E0B92E2AE0422E512C612C712CF50159
:100830004491F8012491F7019491992309F468C037
:10084000442309F454C050E0FA013197E231F10534
:1008500008F04DC08827EE58FF4F8F4FCCC08091D5
:1008600080008F7707C0809180008F7D03C08091CA
:100870008000877F809380003AC084B58F7702C064
:1008800084B58F7D84BD33C08091B0008F7703C065
:100890008091B0008F7D8093B00029C0809190003E
:1008A0008F7707C0809190008F7D03C0809190006A
:1008B000877F809390001BC08091A0008F7707C036
:1008C0008091A0008F7D03C08091A000877F8093DE
:1008D000A0000DC0809120018F7707C0809120017A
:1008E0008F7D03C080912001877F80932001E92FB5
:1008F000F0E0EE0FFF1FE45CFE4FA591B4918C91E8
:10090000282391E080E009F490E0292F382F02C0DD
:1009100020E030E0032E000C440B550B19A26E01B1
:10092000F1E2CF0ED11CCA01B901A301920141D05D
:10093000605DF60162936F01211531054105510596
:1009400091F7CF01DCDD42E050E062E172E08FE13F
:1009500092E09ADC9CDD6BCFEFE1F2E01382128231
:1009600088EE93E0A0E0B0E084839583A683B7830C
:1009700084E092E09183808385EC90E09587848782
:1009800084EC90E09787868780EC90E0918B808B59
:1009900081EC90E0938B828B82EC90E0958B848B42
:1009A00086EC90E0978B868B118E128E138E148EB0
:1009B0000895A1E21A2EAA1BBB1BFD010DC0AA1FA0
:1009C000BB1FEE1FFF1FA217B307E407F50720F0B8
:1009D000A21BB30BE40BF50B661F771F881F991F33
:1009E0001A9469F760957095809590959B01AC017C
:1009F000BD01CF010895EE0FFF1F881F8BBF079029
:100A0000F691E02D199481E090E0F89400C0F894FC
:020A1000FFCF16
:100A120000000000DA01440172012602A3018101F3
:060A220095010D0A000021
:00000001FF
